:020000040800F2
:1000000000000320B90D00080D0E00080D0E0008B9
:100010000D0E00080D0E00080D0E00080000000077
:10002000000000000000000000000000050A0008B9
:100030000D0E000800000000130A0008210A000845
:100040000D0E00080D0E00080D0E00080D0E000824
:100050000D0E00080D0E00080D0E00080D0E000814
:100060000D0E00080D0E00080D0E00082D0A0008E8
:10007000410A00080D0E00080D0E00080D0E0008C4
:100080000D0E00080D0E00080D0E00080D0E0008E4
:100090000D0E00080D0E00080D0E00080D0E0008D4
:1000A0000D0E00080D0E00080D0E00080D0E0008C4
:1000B0000D0E00080D0E00080D0E00080D0E0008B4
:1000C0000D0E00080D0E00080D0E00080D0E0008A4
:1000D000550A00080D0E00080D0E00080D0E000850
:1000E0000D0E00080D0E00080D0E00080D0E000884
:1000F0000D0E00080D0E00080D0E00080D0E000874
:100100000D0E00080D0E00080D0E00080D0E000863
:100110000D0E00080D0E00080D0E00080D0E000853
:100120000D0E00080D0E00080D0E00080D0E000843
:0C0130000D0E00080D0E00080D0E00085A
:10013C0010B5054C237833B9044B13B10448AFF315
:10014C0000800123237010BD74000020000000000B
:10015C00FC49000808B5034B1BB103490348AFF336
:10016C00008008BD0000000078000020FC49000859
:10017C0053B94AB9002908BF00281CBF4FF0FF3102
:10018C004FF0FF3000F072B9ADF1080C6DE904CE00
:10019C0000F006F8DDF804E0DDE9022304B0704756
:1001AC002DE9F047089E04468846002B4BD18A4225
:1001BC00154667D9B2FA82F24AB1C2F1200701FAA8
:1001CC0002F320FA07F7954047EA030894404FEAF8
:1001DC00154E230CB8FBFEF71FFA85FC0EFB178897
:1001EC0043EA084307FB0CF1994209D9EB1807F1D4
:1001FC00FF3080F01B81994240F21881023F2B4462
:10020C005B1AA4B2B3FBFEF00EFB103344EA0344BA
:10021C0000FB0CFCA44509D92C1900F1FF3380F02C
:10022C000781A44540F2048102382C4440EA07407F
:10023C00A4EB0C0400271EB1D4400023C6E90043F4
:10024C003946BDE8F0878B4209D9002E00F0EB80CF
:10025C000027C6E9000138463946BDE8F087B3FAF5
:10026C0083F7002F47D18B4202D3824200F2FA80EF
:10027C00841A61EB030301209846002EE0D0C6E9F6
:10028C000048DDE702B9FFDEB2FA82F2002A40F044
:10029C008F80491B4FEA154E1FFA85F80127B1FBD9
:1002AC00FEFC230C0EFB1C1143EA014308FB0CF172
:1002BC00994207D9EB180CF1FF3002D2994200F2A7
:1002CC00CD808446591AA3B2B1FBFEF00EFB10147C
:1002DC0043EA044408FB00F8A04507D92C1900F1A7
:1002EC00FF3302D2A04500F2B6801846A4EB0804F6
:1002FC0040EA0C409FE7C7F1200CBB4022FA0CFEF1
:10030C004EEA030E01FA07F420FA0CF521FA0CF36D
:10031C004FEA1E482543B3FBF8F92C0C08FB1933A4
:10032C001FFA8EFA44EA034309FB0AF49C4202FAD0
:10033C0007F200FA07F10BD91EEB030309F1FF30AA
:10034C0080F087809C4240F28480A9F102097344BA
:10035C001B1BADB2B3FBF8F008FB103345EA0344AA
:10036C0000FB0AFAA24508D91EEB040400F1FF3386
:10037C006BD2A24569D90238744440EA0940A0FB0B
:10038C000289A4EB0A044C45C2464B4654D351D0C7
:10039C00002E69D0B1EB0A0564EB030404FA0CFCE3
:1003AC00FD40FC404CEA0505C6E90054002747E730
:1003BC00C2F1200320FA03F7954001FA02F021FA6A
:1003CC0003F34FEA154E3843010CB3FBFEF71FFA4B
:1003DC0085F80EFB173341EA034107FB08F38B4208
:1003EC0004FA02F407D9691807F1FF3C2FD28B42AB
:1003FC002DD9023F2944CB1A81B2B3FBFEF00EFB80
:10040C00103341EA034100FB08F38B4207D969180A
:10041C0000F1FF3C17D28B4215D902382944C91A76
:10042C0040EA07473BE73746304609E70746E7E629
:10043C001846FBE64145ABD2B8EB020A69EB0E025B
:10044C0001381346A4E76046E9E7184695E7674686
:10045C00D1E781467CE702382C4447E7ACF1020C2B
:10046C002B442FE7384608E73746E9E6704700BFCC
:10047C0080B485B000AF78604FF0B0439A6C4FF009
:10048C00B0417B6813438B644FF0B0439A6C7B682C
:10049C001340FB60FB6800BF1437BD465DF8047B5E
:1004AC00704780B485B000AF78604FF0B043DA6C21
:1004BC004FF0B0417B681343CB644FF0B043DA6C20
:1004CC007B681340FB60FB6800BF1437BD465DF8CA
:1004DC00047B704780B500AF00F094FC00F01AF874
:1004EC0000F014F900F0F8F800F066F800F0A8F845
:1004FC000A2000F00DFD054803F06EFE4FF47A70F3
:10050C0000F006FD024803F067FEF7E7144A000806
:10051C00244A000880B59AB000AF07F120034822A6
:10052C000021184603F0F4FD3B1D00221A605A60AE
:10053C009A60DA601A615A619A6120233B62012346
:10054C00FB6300233B6460237B640223FB64012375
:10055C003B6500237B652023BB654FF40023FB65C3
:10056C004FF000537B6604233B6607F120031846CB
:10057C0001F046FF0346002B01D000F01FF96F235A
:10058C007B600323BB600023FB6000233B610023E3
:10059C007B618023BB610023FB613B1D032118465B
:1005AC0002F0C2FA0346002B01D000F007F900BF9D
:1005BC006837BD4680BD000080B500AF1D4B1E4A9C
:1005CC001A601C4B1D4A5A601A4B40F20F329A604B
:1005DC00184B0222DA60174B00221A61154B0022CD
:1005EC005A61144B00229A61124B0022DA61114BB2
:1005FC0000221A620F4801F019FA0346002B01D0B1
:10060C0000F0DCF800210B4801F09FFA0346002BA8
:10061C0001D000F0D3F80021064801F0E1FA0346BE
:10062C00002B01D000F0CAF84FF4801001F024FB2D
:10063C0000BF80BD9C00002000540040270B4000F0
:10064C0080B500AF224B234A1A60214B4FF4E132A4
:10065C005A601F4B00229A601D4B0022DA601C4B23
:10066C0000221A611A4B0C225A61194B00229A6112
:10067C00174B0022DA61164B00221A62144B00222F
:10068C005A62134B00229A62114802F00DFD034688
:10069C00002B01D000F092F800210D4803F02AFC49
:1006AC000346002B01D000F089F80021084803F024
:1006BC005FFC0346002B01D000F080F8044803F0E7
:1006CC00E0FB0346002B01D000F078F800BF80BDA2
:1006DC00A80100200038014080B500AF0420FFF7CE
:1006EC00C7FE0120FFF7C4FE002200210B2000F002
:1006FC000CFD0B2000F023FD002200210C2000F04B
:10070C0004FD0C2000F01BFD00BF80BD80B586B041
:10071C0000AF3B1D00221A605A609A60DA601A61C1
:10072C000220FFF7BEFE0420FFF7BBFE0820FFF7F8
:10073C00B8FE00222321154801F060F910237B60DC
:10074C000023BB600123FB603B1D1946104800F0E1
:10075C00E5FF23237B600123BB600223FB600023A6
:10076C003B613B1D1946094800F0D8FF03237B6011
:10077C000023BB600123FB603B1D1946054800F0BC
:10078C00CDFF00BF1837BD4680BD00BF0004004838
:10079C0000080048000C004880B582B000AF7860BB
:1007AC003B1D01221946044802F0CEFC7B6818461A
:1007BC000837BD4680BD00BFA801002080B400AF43
:1007CC0000BFBD465DF8047B704780B485B000AFB8
:1007DC0078604FF0B043DA6C4FF0B0417B68134354
:1007EC00CB644FF0B043DA6C7B681340FB60FB6862
:1007FC0000BF1437BD465DF8047B704780B485B0EC
:10080C0000AF78604FF0B0439A6D4FF0B0417B6809
:10081C0013438B654FF0B0439A6D7B681340FB60BC
:10082C00FB6800BF1437BD465DF8047B704780B48D
:10083C0085B000AF78604FF0B0431A6E4FF0B04106
:10084C007B6813430B664FF0B0431A6E7B68134002
:10085C00FB60FB6800BF1437BD465DF8047B704736
:10086C0080B400AF00BFBD465DF8047B704700004C
:10087C0080B588B000AF786007F10C0300221A60D5
:10088C005A609A60DA601A617B681B680F4A93425F
:10089C0017D10220FFF799FF4FF44073FB6012232E
:1008AC003B6101237B610023BB610423FB6107F1E6
:1008BC000C031946064800F031FF4FF40010FFF707
:1008CC009DFF00BF2037BD4680BD00BF00540040D7
:1008DC000004004880B588B000AF786007F10C03C5
:1008EC0000221A605A609A60DA601A617B681B6891
:1008FC003B4A934270D14FF48040FFF798FF02209F
:10090C00FFF763FFC023FB6002233B6100237B6185
:10091C000023BB610723FB6107F10C031946314827
:10092C0000F0FCFE304B314A1A602F4B0F225A60FC
:10093C002D4B10229A602C4B0022DA602A4B80221D
:10094C001A61294B00225A61274B00229A61264BCF
:10095C000022DA61244B00221A62234800F00AFCC0
:10096C000346002B01D0FFF729FF7B681E4A5A670C
:10097C001D4A7B6893621E4B1E4A1A601C4B0E224A
:10098C005A601B4B00229A60194B0022DA60184BFC
:10099C0080221A61164B00225A61154B00229A6173
:1009AC00134B0022DA61124B00221A62104800F03D
:1009BC00E1FB0346002B01D0FFF700FF7B680C4ADC
:1009CC009A670B4A7B68936200220021242000F076
:1009DC009CFB242000F0B3FB00BF2037BD4680BD3C
:1009EC000038014000040048E800002008000240E4
:1009FC00480100201C00024080B400AF00BFBD467F
:100A0C005DF8047B704780B400AF00BFBD465DF855
:100A1C00047B704780B500AF00F04EFA00BF80BD7C
:100A2C0080B500AF024800F027FD00BF80BD00BFBD
:100A3C00E800002080B500AF024800F01DFD00BFAB
:100A4C0080BD00BF4801002080B500AF024802F015
:100A5C00FBFB00BF80BD00BFA801002080B586B0A5
:100A6C0000AFF860B9607A6000237B610AE0AFF3F5
:100A7C0000800146BB685A1CBA60CAB21A707B6906
:100A8C0001337B617A697B689A42F0DB7B6818469C
:100A9C001837BD4680BD80B586B000AFF860B96030
:100AAC007A6000237B6109E0BB685A1CBA601B7832
:100ABC001846FFF771FE7B6901337B617A697B68AD
:100ACC009A42F1DB7B6818461837BD4680BD80B46E
:100ADC0083B000AF78604FF0FF3318460C37BD463B
:100AEC005DF8047B704780B483B000AF78603960E8
:100AFC003B684FF400525A60002318460C37BD4631
:100B0C005DF8047B704780B483B000AF786001233C
:100B1C0018460C37BD465DF8047B704780B485B031
:100B2C0000AFF860B9607A60002318461437BD46F0
:100B3C005DF8047B7047000080B586B000AF78602C
:100B4C00144A154BD31A7B617B693B61134B1B68B1
:100B5C00002B02D1114B124A1A60104B1A687B6899
:100B6C0013443A699A4207D203F0A8FA02460C23BE
:100B7C0013604FF0FF3309E0084B1B68FB60074B19
:100B8C001A687B681344054A1360FB6818461837CB
:100B9C00BD4680BD00000320000400009000002032
:100BAC004802002080B400AF264B00229A60254BEF
:100BBC00D3F88830234A43F47003C2F888304FF0DE
:100BCC00B0431B684FF0B04243F0010313604FF089
:100BDC00B0434FF4E0229A604FF0B0431A684FF0E4
:100BEC00B041194B13400B604FF0B043D3F8943025
:100BFC004FF0B04223F00503C2F894304FF0B043ED
:100C0C00D3F898304FF0B04223F00103C2F898307B
:100C1C004FF0B0430D4ADA604FF0B0430B4A1A6103
:100C2C004FF0B0431B684FF0B04223F480231360A5
:100C3C004FF0B04300229A6100BFBD465DF8047BC3
:100C4C00704700BF00ED00E0FBFEF6FA0010042236
:100C5C0080B487B000AF4FF0B0431B681B0903F0A2
:100C6C000F03474A52F823303B614FF0B0439B6867
:100C7C0003F00C030C2B67D801A252F823F000BF31
:100C8C00C10C0008550D0008550D0008550D000845
:100C9C00C90C0008550D0008550D0008550D00082D
:100CAC00D10C0008550D0008550D0008550D000815
:100CBC00D90C0008334A3B69136049E0314B324A86
:100CCC001A6045E02F4B314A1A6041E04FF0B043B7
:100CDC00DB6803F00303FB604FF0B043DB681B09D8
:100CEC0003F007030133BB60FB68022B05D1264AD6
:100CFC00BB68B2FBF3F37B610DE0FB68032B05D102
:100D0C00224ABB68B2FBF3F37B6104E03A69BB682F
:100D1C00B2FBF3F37B614FF0B043DB681B0A03F0CB
:100D2C007F027B6902FB03F37B614FF0B043DB680E
:100D3C005B0F03F0070301337B607A697B68B2FBBE
:100D4C00F3F3104A136003E00E4A3B69136000BFD3
:100D5C004FF0B0439B681B0903F00F030C4A52F889
:100D6C0023303B60074B1A683B68B2FBF3F3054A30
:100D7C00136000BF1C37BD465DF8047B704700BF95
:100D8C00D04A0008040000200024F40000127A006D
:100D9C00704A0008D458C4500433C4188C42F9D398
:100DAC007047036004308842FBD370470C4885467B
:100DBC00FFF7F8FE0B480C490C4A0023FFF7EDFF38
:100DCC000B480C490023FFF7EEFF0B480B4900239F
:100DDC00FFF7E9FF03F078F9FFF77CFBFEE7000073
:100DEC000000032004000020740000209C4B00082D
:100DFC0074000020440200200000032000000320A7
:100E0C00FEE7000080B582B000AF0023FB710C4BF5
:100E1C001B680B4A43F480731360032000F06AF9DB
:100E2C00002000F00FF80346002B02D00123FB71C9
:100E3C0001E0FFF715FDFB7918460837BD4680BD6C
:100E4C000040005880B584B000AF78600023FB737D
:100E5C00174B1B78002B24D002F00EF80246144BD3
:100E6C001B7819464FF47A73B3FBF1F3B2FBF3F32F
:100E7C00184600F072F90346002B0FD17B680F2B3C
:100E8C0009D8002279684FF0FF3000F03EF9094A8A
:100E9C007B68136007E00123FB7304E00123FB7301
:100EAC0001E00123FB73FB7B18461037BD4680BD68
:100EBC000C0000200800002080B400AF064B1B780B
:100ECC001A46064B1B681344044A136000BFBD4608
:100EDC005DF8047B704700BF0C0000203C02002032
:100EEC0080B400AF034B1B681846BD465DF8047B0D
:100EFC00704700BF3C02002080B400AF034B1B685E
:100F0C001846BD465DF8047B704700BF0800002002
:100F1C0080B584B000AF7860FFF7E2FFB8607B6803
:100F2C00FB60FB68B3F1FF3F05D0094B1B781A46F9
:100F3C00FB681344FB6000BFFFF7D2FF0246BB689F
:100F4C00D31AFA689A42F7D800BF1037BD4680BD55
:100F5C000C00002080B485B000AF78607B6803F093
:100F6C000703FB600C4BDB68BB60BA684FF6FF03F2
:100F7C001340BB60FB681A02BB68134343F0BF63AA
:100F8C0043F40033BB60044ABB68D36000BF143722
:100F9C00BD465DF8047B704700ED00E080B400AF07
:100FAC00044BDB681B0A03F007031846BD465DF8CB
:100FBC00047B704700ED00E080B483B000AF0346C3
:100FCC00FB7197F90730002B0BDBFB7903F01F0249
:100FDC00074997F907305B09012000FA02F241F842
:100FEC00232000BF0C37BD465DF8047B704700BF63
:100FFC0000E100E080B483B000AF03463960FB71C0
:10100C0097F90730002B0ADB3B68DAB20C4997F9E9
:10101C0007301201D2B20B4483F800230AE03B687C
:10102C00DAB20849FB7903F00F03043B1201D2B288
:10103C000B441A7600BF0C37BD465DF8047B704735
:10104C0000E100E000ED00E080B489B000AFF86092
:10105C00B9607A60FB6803F00703FB61FB69C3F1BD
:10106C000703042B28BF0423BB61FB690433062B45
:10107C0002D9FB69033B00E000237B614FF0FF3298
:10108C00BB6902FA03F3DA43BB681A407B699A40E6
:10109C004FF0FF317B6901FA03F3D9437B680B40B6
:1010AC00134318462437BD465DF8047B7047000097
:1010BC0080B582B000AF78607B68013BB3F1807F74
:1010CC0001D301230FE00A4A7B68013B53600F21D7
:1010DC004FF0FF30FFF78EFF054B00229A60044B58
:1010EC0007221A60002318460837BD4680BD00BF92
:1010FC0010E000E080B582B000AF78607868FFF750
:10110C0029FF00BF0837BD4680BD80B586B000AF53
:10111C000346B9607A60FB73FFF740FF78617A6829
:10112C00B9687869FFF790FF024697F90F301146BE
:10113C001846FFF75FFF00BF1837BD4680BD80B56E
:10114C0082B000AF0346FB7197F907301846FFF7E2
:10115C0033FF00BF0837BD4680BD80B582B000AFFD
:10116C0078607868FFF7A4FF034618460837BD4639
:10117C0080BD000080B584B000AF78607B68002B28
:10118C0001D101238EE07B681B681A46474B9A42BB
:10119C000FD87B681B681A46454B1344454AA2FB83
:1011AC0003231B099A007B685A647B68424A1A64C1
:1011BC000EE07B681B681A46404B13443D4AA2FB69
:1011CC0003231B099A007B685A647B683C4A1A64A7
:1011DC007B68022283F825207B681B681B68FB60F8
:1011EC00FB6823F4FF4323F07003FB607B689A6871
:1011FC007B68DB681A437B681B691A437B685B69F5
:10120C001A437B689B691A437B68DB691A437B68CA
:10121C001B6A1343FA681343FB607B681B68FA680C
:10122C001A60786800F016FA7B689B68B3F5804FFB
:10123C0002D17B6800225A607B685A687B689B6C81
:10124C0002F03F021A607B68DB6C7A68126D5A60A0
:10125C007B685B68002B10D07B685B68042B0CD818
:10126C00786800F035FA7B685B6D00221A607B6849
:10127C009B6D7A68D26D5A6008E07B6800225A65D3
:10128C007B6800229A657B680022DA657B68002205
:10129C00DA637B68012283F825207B68002283F8BF
:1012AC002420002318461037BD4680BD0704024099
:1012BC00F8FFFDBFCDCCCCCC00000240F8FBFDBF4D
:1012CC000004024080B586B000AFF860B9607A6067
:1012DC003B600023FB75FB6893F82430012B01D194
:1012EC00022366E0FB68012283F82420FB6893F854
:1012FC002530DBB2012B55D1FB68022283F8252067
:10130C00FB680022DA63FB681B681A68FB681B68C1
:10131C0022F001021A603B687A68B968F86800F03C
:10132C005AF9FB681B6B002B08D0FB681B681A680A
:10133C00FB681B6842F00E021A600FE0FB681B682A
:10134C001A68FB681B6822F004021A60FB681B68B1
:10135C001A68FB681B6842F00A021A60FB689B6CF7
:10136C001B6803F48033002B07D0FB689B6C1A6856
:10137C00FB689B6C42F480721A60FB685B6D002BFF
:10138C0007D0FB685B6D1A68FB685B6D42F480727A
:10139C001A60FB681B681A68FB681B6842F0010244
:1013AC001A6005E0FB68002283F824200223FB75F9
:1013BC00FB7D18461837BD4680BD80B584B000AFA4
:1013CC0078600023FB737B6893F82530DBB2022B2B
:1013DC0005D07B680422DA630123FB7347E07B684A
:1013EC001B681A687B681B6822F00E021A607B6807
:1013FC001B681A687B681B6822F001021A607B6804
:10140C009B6C1A687B689B6C22F480721A607B68F8
:10141C005B6C03F01C027B681B6C012101FA02F26D
:10142C005A607B68DB6C7A68126D5A607B685B6D06
:10143C00002B0CD07B685B6D1A687B685B6D22F4AB
:10144C0080721A607B689B6D7A68D26D5A607B687B
:10145C00012283F825207B68002283F824207B68F6
:10146C009B6B002B03D07B689B6B78689847FB7B4E
:10147C0018461037BD4680BD80B584B000AF78608B
:10148C007B681B6C1B68FB607B681B681B68BB6004
:10149C007B685B6C03F01C0304229A40FB681340CE
:1014AC00002B26D0BB6803F00403002B21D07B68F3
:1014BC001B681B6803F02003002B07D17B681B689B
:1014CC001A687B681B6822F004021A607B685B6CEC
:1014DC0003F01C027B681B6C042101FA02F25A60B7
:1014EC007B681B6B002B71D07B681B6B78689847F3
:1014FC006CE07B685B6C03F01C0302229A40FB6877
:10150C001340002B2ED0BB6803F00203002B29D014
:10151C007B681B681B6803F02003002B0BD17B68D6
:10152C001B681A687B681B6822F00A021A607B68C9
:10153C00012283F825207B685B6C03F01C027B681E
:10154C001B6C022101FA02F25A607B68002283F8BC
:10155C0024207B68DB6A002B38D07B68DB6A7868D8
:10156C00984733E07B685B6C03F01C0308229A40BD
:10157C00FB681340002B2AD0BB6803F00803002B38
:10158C0025D07B681B681A687B681B6822F00E02EA
:10159C001A607B685B6C03F01C027B681B6C01217E
:1015AC0001FA02F25A607B680122DA637B6801223D
:1015BC0083F825207B68002283F824207B685B6BF2
:1015CC00002B04D07B685B6B7868984700BF00BF2A
:1015DC001037BD4680BD80B485B000AFF860B960EF
:1015EC007A603B60FB68DB6CFA68126D5A60FB68D2
:1015FC005B6D002B04D0FB689B6DFA68D26D5A6052
:10160C00FB685B6C03F01C02FB681B6C012101FA8C
:10161C0002F25A60FB681B683A685A60FB689B6868
:10162C00102B08D1FB681B687A689A60FB681B68F2
:10163C00BA68DA6007E0FB681B68BA689A60FB68F6
:10164C001B687A68DA6000BF1437BD465DF8047B0E
:10165C007047000080B485B000AF78607B681B6871
:10166C001A46174B9A420AD87B685B6C9B089B0006
:10167C0003F1804303F502337A68936407E07B68D7
:10168C005B6C9B089A000F4B13447A6893647B68DD
:10169C001B68DBB2083B0C4AA2FB03231B09FB6053
:1016AC007B680A4ADA64FB6803F01F0301229A4044
:1016BC007B681A6500BF1437BD465DF8047B704724
:1016CC00070402401C080240CDCCCCCC8008024060
:1016DC0080B485B000AF78607B685B6803F03F0333
:1016EC00FB60FA680B4B13449B001A467B685A65E7
:1016FC007B68094A9A65FB68013B03F003030122EE
:10170C009A407B68DA6500BF1437BD465DF8047BF0
:10171C00704700BF3F8200104009024080B487B080
:10172C0000AF7860396000237B614CE13B681A683C
:10173C0001217B6901FA03F31340FB60FB68002B6A
:10174C0000F03E813B685B68012B0BD03B685B680B
:10175C00022B07D03B685B68112B03D03B685B689E
:10176C00122B30D17B689B683B617B695B00032249
:10177C0002FA03F3DB433A6913403B613B68DA68D6
:10178C007B695B0002FA03F33A6913433B617B68A4
:10179C003A699A607B685B683B6101227B6902FA5B
:1017AC0003F3DB433A6913403B613B685B681B09FD
:1017BC0003F001027B6902FA03F33A6913433B61BC
:1017CC007B683A695A607B68DB683B617B695B00CC
:1017DC00032202FA03F3DB433A6913403B613B6893
:1017EC009A687B695B0002FA03F33A6913433B6125
:1017FC007B683A69DA603B685B68022B03D03B6814
:10180C005B68122B23D17B69DA087B68083253F8AA
:10181C0022303B617B6903F007039B000F2202FA25
:10182C0003F3DB433A6913403B613B681A697B69FC
:10183C0003F007039B0002FA03F33A6913433B617D
:10184C007B69DA087B680832396943F822107B68B7
:10185C001B683B617B695B00032202FA03F3DB43E9
:10186C003A6913403B613B685B6803F003027B6998
:10187C005B0002FA03F33A6913433B617B683A69F4
:10188C001A603B685B6803F08053002B00F0988073
:10189C00544A7B699B08023352F823303B617B69C5
:1018AC0003F003039B000F2202FA03F3DB433A69B4
:1018BC0013403B617B68B3F1904F19D07B684A4A67
:1018CC00934213D07B68494A93420DD07B68484AB7
:1018DC00934207D07B68474A934201D1042308E026
:1018EC00072306E0032304E0022302E0012300E0C7
:1018FC0000237A6902F00302920093403A69134381
:10190C003B6138497B699B0802333A6941F82320D3
:10191C00394BD3F880303B61FB68DB433A691340A9
:10192C003B613B685B6803F48033002B03D03A695E
:10193C00FB6813433B61304A3B69C2F880302E4B45
:10194C00D3F884303B61FB68DB433A6913403B615D
:10195C003B685B6803F40033002B03D03A69FB68E7
:10196C0013433B61244A3B69C2F88430224B1B6809
:10197C003B61FB68DB433A6913403B613B685B6846
:10198C0003F48013002B03D03A69FB6813433B61CB
:10199C00194A3B691360184B5B683B61FB68DB437E
:1019AC003A6913403B613B685B6803F40013002BFE
:1019BC0003D03A69FB6813433B610F4A3B695360A0
:1019CC007B6901337B613B681A687B6922FA03F3FC
:1019DC00002B7FF4ABAE00BF1C37BD465DF8047B1B
:1019EC00704700BF00000140000400480008004898
:1019FC00000C0048001000480008005880B483B068
:101A0C0000AF78600B467B8013467B707B78002B95
:101A1C0003D07A887B689A6102E07A887B689A6244
:101A2C0000BF0C37BD465DF8047B704780B582B0B3
:101A3C0000AF78607B68002B01D1012381E07B68CB
:101A4C0093F84130DBB2002B06D17B68002283F87F
:101A5C0040207868FEF70CFF7B68242283F8412035
:101A6C007B681B681A687B681B6822F001021A608D
:101A7C007B685A687B681B6822F070621A617B680D
:101A8C001B689A687B681B6822F400429A607B682A
:101A9C00DB68012B07D17B689A687B681B6842F472
:101AAC0000429A6006E07B689A687B681B6842F487
:101ABC0004429A607B68DB68022B04D17B681B684C
:101ACC004FF400625A607B681B685B687A68126826
:101ADC0043F0007343F4004353607B681B68DA687F
:101AEC007B681B6822F40042DA607B681A697B68A9
:101AFC005B6942EA03017B689B691A027B681B687D
:101B0C000A43DA607B68D9697B681A6A7B681B6850
:101B1C000A431A607B681B681A687B681B6842F072
:101B2C0001021A607B6800225A647B68202283F8C9
:101B3C0041207B6800221A637B68002283F84220D4
:101B4C00002318460837BD4680BD80B483B000AF73
:101B5C00786039607B6893F84130DBB2202B38D148
:101B6C007B6893F84030012B01D1022332E07B6873
:101B7C00012283F840207B68242283F841207B6873
:101B8C001B681A687B681B6822F001021A607B686C
:101B9C001B681A687B681B6822F480521A607B6889
:101BAC001B6819687B681B683A680A431A607B6873
:101BBC001B681A687B681B6842F001021A607B681C
:101BCC00202283F841207B68002283F840200023E8
:101BDC0000E0022318460C37BD465DF8047B7047C5
:101BEC0080B485B000AF786039607B6893F8413081
:101BFC00DBB2202B39D17B6893F84030012B01D11B
:101C0C00022333E07B68012283F840207B68242286
:101C1C0083F841207B681B681A687B681B6822F07C
:101C2C0001021A607B681B681B68FB60FB6823F46D
:101C3C007063FB603B681B02FA681343FB607B68B4
:101C4C001B68FA681A607B681B681A687B681B68DB
:101C5C0042F001021A607B68202283F841207B68E5
:101C6C00002283F84020002300E00223184614379A
:101C7C00BD465DF8047B704780B483B000AF7860DC
:101C8C00054B5A6804497B6813434B6000BF0C3703
:101C9C00BD465DF8047B70470000014080B400AF86
:101CAC00054B1B68044A43F48073136000BFBD46A8
:101CBC005DF8047B704700BF0004005880B400AF8F
:101CCC00044B1B6803F4C0631846BD465DF8047BE7
:101CDC00704700BF0004005880B400AF4FF0B04311
:101CEC001B6803F48013B3F5801F01D1012300E0BE
:101CFC0000231846BD465DF8047B704780B400AFE6
:101D0C004FF0B0431B684FF0B04243F48023136094
:101D1C0000BFBD465DF8047B704780B400AF4FF048
:101D2C00B0431B684FF0B04223F48023136000BF14
:101D3C00BD465DF8047B704780B400AF4FF0B043F4
:101D4C001B684FF0B04243F48033136000BFBD46B4
:101D5C005DF8047B704780B400AF4FF0B0431B6854
:101D6C004FF0B04223F48033136000BFBD465DF8E2
:101D7C00047B704780B400AF4FF0B0431B6803F492
:101D8C000033B3F5003F01D1012300E000231846D6
:101D9C00BD465DF8047B704780B400AF4FF0B04394
:101DAC001B684FF0B04243F48073136000BFBD4614
:101DBC005DF8047B704780B400AF4FF0B0431B68F4
:101DCC004FF0B04223F48073136000BFBD465DF842
:101DDC00047B704780B400AF4FF0B0431B6803F432
:101DEC008063B3F5806F01D1012300E00023184616
:101DFC00BD465DF8047B704780B483B000AF78605B
:101E0C004FF0B0435B6823F0FE427B681B064FF03B
:101E1C00B04113434B6000BF0C37BD465DF8047BEB
:101E2C00704780B400AF4FF0B043D3F898304FF008
:101E3C00B04243F00103C2F8983000BFBD465DF8D4
:101E4C00047B704780B400AF4FF0B043D3F89830A8
:101E5C004FF0B04223F00103C2F8983000BFBD46EA
:101E6C005DF8047B704780B400AF4FF0B043D3F8FB
:101E7C00983003F00203022B01D1012300E0002370
:101E8C001846BD465DF8047B704780B400AF4FF038
:101E9C00B043D3F890304FF0B04243F00103C2F896
:101EAC00903000BFBD465DF8047B704780B400AF36
:101EBC004FF0B043D3F890304FF0B04223F0010311
:101ECC00C2F8903000BFBD465DF8047B704780B40B
:101EDC0000AF4FF0B043D3F890304FF0B04243F026
:101EEC000403C2F8903000BFBD465DF8047B704718
:101EFC0080B400AF4FF0B043D3F890304FF0B04205
:101F0C0023F00403C2F8903000BFBD465DF8047B9B
:101F1C00704780B400AF4FF0B043D3F8903003F06B
:101F2C000203022B01D1012300E000231846BD4619
:101F3C005DF8047B704780B400AF4FF0B043D3F82A
:101F4C0094304FF0B04243F00103C2F8943000BF1C
:101F5C00BD465DF8047B704780B400AF4FF0B043D2
:101F6C00D3F894304FF0B04223F00103C2F8943010
:101F7C0000BFBD465DF8047B704780B400AF4FF0E6
:101F8C00B043D3F8943003F00203022B01D10123A8
:101F9C0000E000231846BD465DF8047B704780B412
:101FAC0000AF4FF0B043D3F894304FF0B04243F051
:101FBC000403C2F8943000BFBD465DF8047B704743
:101FCC0080B400AF4FF0B043D3F894304FF0B04230
:101FDC0023F00403C2F8943000BFBD465DF8047BC7
:101FEC00704780B400AF4FF0B043D3F8943003F097
:101FFC000803082B01D1012300E000231846BD463D
:10200C005DF8047B704780B483B000AF78604FF00C
:10201C00B043D3F8943023F470627B681B024FF00A
:10202C00B0411343C1F8943000BF0C37BD465DF886
:10203C00047B704780B400AF4FF0B0431B684FF087
:10204C00B04243F00103136000BFBD465DF8047B52
:10205C00704780B400AF4FF0B0431B684FF0B042F4
:10206C0023F00103136000BFBD465DF8047B70478D
:10207C0080B400AF4FF0B0431B6803F00203022B97
:10208C0001D1012300E000231846BD465DF8047B16
:10209C00704780B483B000AF78604FF0B0431B68DA
:1020AC0023F0F0024FF0B0417B6813430B6000BF8C
:1020BC000C37BD465DF8047B704780B483B000AF2D
:1020CC004FF0B0431B6803F0F0037B607B68B02BD0
:1020DC0001D9B0237B607B6818460C37BD465DF890
:1020EC00047B704780B483B000AF78604FF0B0438E
:1020FC005B6823F47F427B681B024FF0B0411343B3
:10210C004B6000BF0C37BD465DF8047B704780B454
:10211C0083B000AF78604FF0B0439B6823F00302AC
:10212C004FF0B0417B6813438B6000BF0C37BD464A
:10213C005DF8047B704780B400AF4FF0B0439B68F0
:10214C0003F00C031846BD465DF8047B704780B461
:10215C0083B000AF78604FF0B0439B6823F0F0027F
:10216C004FF0B0417B6813438B6000BF0C37BD460A
:10217C005DF8047B704780B483B000AF78604FF09B
:10218C00B043D3F8083123F0F0024FF0B0417B6834
:10219C001343C1F8083100BF0C37BD465DF8047B12
:1021AC00704780B483B000AF78604FF0B043D3F881
:1021BC00083123F00F027B681B094FF0B041134329
:1021CC00C1F8083100BF0C37BD465DF8047B704781
:1021DC0080B483B000AF78604FF0B0439B6823F4B9
:1021EC00E0624FF0B0417B6813438B6000BF0C374B
:1021FC00BD465DF8047B704780B483B000AF786057
:10220C004FF0B0439B6823F460524FF0B0417B68B1
:10221C0013438B6000BF0C37BD465DF8047B7047E1
:10222C0080B400AF4FF0B0439B6803F0F003184646
:10223C00BD465DF8047B704780B400AF4FF0B043EF
:10224C00D3F808311B0103F0F0031846BD465DF8C6
:10225C00047B704780B400AF4FF0B0439B6803F42D
:10226C00E0631846BD465DF8047B704780B400AF50
:10227C004FF0B0439B6803F460531846BD465DF8BD
:10228C00047B704780B400AF4FF0B0431B684FF035
:10229C00B04243F08073136000BFBD465DF8047B11
:1022AC00704780B400AF4FF0B0431B684FF0B042A2
:1022BC0023F08073136000BFBD465DF8047B70474C
:1022CC0080B400AF4FF0B0431B6803F00073B3F160
:1022DC00007F01D1012300E000231846BD465DF8C4
:1022EC00047B704780B400AF4FF0B043DB681B0A2F
:1022FC0003F07F031846BD465DF8047B704780B43D
:10230C0000AF4FF0B043DB6803F060431846BD46A6
:10231C005DF8047B704780B400AF4FF0B043DB68CE
:10232C0003F070031846BD465DF8047B704780B41B
:10233C0000AF4FF0B043DB6803F003031846BD4613
:10234C005DF8047B704780B400AF4FF0B0439B68DE
:10235C0003F48033B3F5803F01D1012300E0002367
:10236C001846BD465DF8047B704780B400AF4FF053
:10237C00B043D3F8083103F40033B3F5003F01D177
:10238C00012300E000231846BD465DF8047B70472E
:10239C0080B400AF4FF0B043D3F8083103F480336E
:1023AC00B3F5803F01D1012300E000231846BD4660
:1023BC005DF8047B704780B400AF4FF0B0439B686E
:1023CC0003F40033B3F5003F01D1012300E00023F7
:1023DC001846BD465DF8047B704780B400AF4FF0E3
:1023EC00B0439B6803F48023B3F5802F01D1012304
:1023FC0000E000231846BD465DF8047B70470000E2
:10240C0090B58DB000AF78607B68002B01D10123B3
:10241C0086E37B681B6803F02003002B00F08F80A1
:10242C00FFF789FEF862FFF782FFB862FB6A002BA8
:10243C0005D0FB6A0C2B49D1BB6A012B46D1FFF7A7
:10244C0017FE0346002B05D07B68DB69002B01D1FE
:10245C00012365E37B685C6AFFF72FFE03469C4211
:10246C0014D97B685B6A184600F046FD0346002BC6
:10247C0001D0012354E37B685B6A1846FFF709FE21
:10248C007B681B6A1846FFF72DFE13E07B685B6ABE
:10249C001846FFF7FEFD7B681B6A1846FFF722FE05
:1024AC007B685B6A184600F027FD0346002B01D0C1
:1024BC00012335E3FEF7CCFBB44B1B681846FEF743
:1024CC00C1FC0346002B39D0012329E37B68DB696F
:1024DC00002B1ED0FFF7AEFDFEF702FD786208E080
:1024EC00FEF7FEFC02467B6AD31A022B01D90323AA
:1024FC0016E3FFF7BDFD0346002BF1D07B685B6A4A
:10250C001846FFF7C6FD7B681B6A1846FFF7EAFD05
:10251C0015E0FFF79EFDFEF7E3FC786208E0FEF79E
:10252C00DFFC02467B6AD31A022B01D90323F7E2A4
:10253C00FFF79EFD0346002BF1D100E000BF7B6846
:10254C001B6803F00103002B5AD0FFF7F4FD38622F
:10255C00FFF7EDFEF8613B6A082B05D03B6A0C2BAC
:10256C000DD1FB69032B0AD1FFF704FC0346002BAA
:10257C0045D07B685B68002B41D10123D0E27B689E
:10258C005B68B3F5803F02D1FFF7D6FB0DE07B68AB
:10259C005B68B3F5A02F04D1FFF7B0FBFFF7CCFBC2
:1025AC0003E0FFF7D8FBFFF7B8FB7B685B68002BF9
:1025BC0012D0FEF795FC786208E0FEF791FC02461B
:1025CC007B6AD31A642B01D90323A9E2FFF7D2FB50
:1025DC000346002BF1D013E0FEF782FC786208E092
:1025EC00FEF77EFC02467B6AD31A642B01D90323C7
:1025FC0096E2FFF7BFFB0346002BF1D100E000BFD2
:10260C007B681B6803F00203002B51D0FFF793FD8E
:10261C00B861FFF78CFE7861BB69042B05D0BB69F0
:10262C000C2B13D17B69022B10D1FFF7D3FB034684
:10263C00002B05D07B68DB68002B01D101236FE2F6
:10264C007B681B691846FFF7D7FB31E07B68DB68BA
:10265C00002B19D0FFF7A0FBFEF742FC786208E0D4
:10266C00FEF73EFC02467B6AD31A022B01D90323E8
:10267C0056E2FFF7AFFB0346002BF1D07B681B69DA
:10268C001846FFF7B9FB13E0FFF795FBFEF728FCA4
:10269C00786208E0FEF724FC02467B6AD31A022B10
:1026AC0001D903233CE2FFF795FB0346002BF1D144
:1026BC007B681B6803F00803002B06D17B681B6842
:1026CC0003F01003002B00F0A2807B685B69002BE9
:1026DC0075D07B681B6803F01003002B46D0FFF706
:1026EC004CFC0346002B13D1FFF725FCFEF7F8FB3F
:1026FC00786208E0FEF7F4FB02467B6AD31A022BE1
:10270C0001D903230CE2FFF738FC0346002BF1D070
:10271C00FFF745FCFEF7E4FB786208E0FEF7E0FB10
:10272C0002467B6AD31A032B01D90323F8E1FFF786
:10273C0058FC0346002BF1D07B689B691846FFF7C9
:10274C0062FCFFF709FCFEF7CBFB786208E0FEF7B2
:10275C00C7FB02467B6AD31A022B01D90323DFE1A4
:10276C00FFF70BFC0346002BF1D150E0FFF7E3FB26
:10277C00FEF7B6FB78620BE0FEF7B2FB02467B6A13
:10278C00D31A022B04D90323CAE100BF080000208E
:10279C00FFF7F3FB0346002BEED0FFF711FC08E02C
:1027AC00FEF79EFB02467B6AD31A032B01D9032347
:1027BC00B6E1FFF716FC0346002BF1D127E0FFF73B
:1027CC00FFFBFEF78DFB786208E0FEF789FB024603
:1027DC007B6AD31A032B01D90323A1E1FFF701FC78
:1027EC000346002BF1D1FFF7B7FBFEF779FB7862BC
:1027FC0008E0FEF775FB02467B6AD31A022B01D95F
:10280C0003238DE1FFF7B9FB0346002BF1D17B6865
:10281C001B6803F00403002B5BD0B54B1B6803F45F
:10282C008073002B14D1FFF739FAFEF759FB78624D
:10283C0008E0FEF755FB02467B6AD31A022B01D93E
:10284C0003236DE1AA4B1B6803F48073002BF0D0BB
:10285C007B689B68012B02D1FFF717FB0CE07B68B0
:10286C009B68052B04D1FFF732FBFFF70EFB03E04F
:10287C00FFF71CFBFFF73CFB7B689B68002B14D01D
:10288C00FEF72EFB78620AE0FEF72AFB02467B6A13
:10289C00D31A41F28832934201D9032340E1FFF766
:1028AC0038FB0346002BEFD013E0FEF719FB7862E0
:1028BC000AE0FEF715FB02467B6AD31A41F2883216
:1028CC00934201D903232BE1FFF723FB0346002B93
:1028DC00EFD17B681B6803F04003002B2CD07B6886
:1028EC009B6A002B14D0FFF79CFAFEF7F9FA78627A
:1028FC0008E0FEF7F5FA02467B6AD31A022B01D9DF
:10290C0003230DE1FFF7AFFA0346002BF1D013E0E0
:10291C00FFF798FAFEF7E4FA786208E0FEF7E0FABF
:10292C0002467B6AD31A022B01D90323F8E0FFF786
:10293C009AFA0346002BF1D17B68DB6A002B00F07E
:10294C00EE80FFF7F8FB38614FF0B043DB68FB60BB
:10295C007B68DB6A022B40F0AF80FB6803F003025C
:10296C007B681B6B9A4223D1FB6803F070027B6877
:10297C005B6B9A421CD1FB681B0A03F07F027B68DD
:10298C009B6B9A4214D1FB6803F478127B68DB6B67
:10299C009A420DD1FB6803F060627B681B6C9A4213
:1029AC0006D1FB6803F060427B685B6C9A425DD099
:1029BC003B690C2B58D04FF0B0431B6803F080637D
:1029CC00002B01D00123ABE0FFF76BFCFEF788FA7C
:1029DC00786208E0FEF784FA02467B6AD31A022B6F
:1029EC0001D903239CE04FF0B0431B6803F0007344
:1029FC00002BEFD14FF0B043DA683E4B13407A68AE
:102A0C00116B7A68526B11437A68926B1202114304
:102A1C007A68D26B11437A68126C11437A68526CE3
:102A2C000A434FF0B0411343CB60FFF72BFC4FF040
:102A3C00B043DB684FF0B04243F08053D360FEF7F5
:102A4C004FFA786208E0FEF74BFA02467B6AD31A1B
:102A5C00022B01D9032363E04FF0B0431B6803F052
:102A6C000073002BEFD05AE0012359E04FF0B04334
:102A7C001B6803F00073002B51D1FFF703FC4FF0E0
:102A8C00B043DB684FF0B04243F08053D360FEF7A5
:102A9C0027FA786208E0FEF723FA02467B6AD31A1B
:102AAC00022B01D903233BE04FF0B0431B6803F02A
:102ABC000073002BEFD032E03B690C2B2DD0FFF7CD
:102ACC00F0FB4FF0B043DB684FF0B04223F0030350
:102ADC00D3604FF0B043DB684FF0B04223F0885323
:102AEC0023F48033D360FEF7FBF978620DE000BF6E
:102AFC00000400588C80C111FEF7F2F902467B6A83
:102B0C00D31A022B01D903230AE04FF0B0431B6800
:102B1C0003F00073002BEFD101E0012300E0002350
:102B2C0018463437BD4690BD80B584B000AF786090
:102B3C0039607B68002B01D101232AE1974B1B687C
:102B4C0003F007033A689A421BD9944B1B6823F095
:102B5C00070292493B6813430B60FEF7C1F9F8601A
:102B6C0008E0FEF7BDF90246FB68D31A022B01D927
:102B7C0003230EE1894B1B6803F007033A689A4262
:102B8C00EFD17B681B6803F00203002B16D07B6827
:102B9C009B681846FFF7DBFAFEF7A2F9F86008E02D
:102BAC00FEF79EF90246FB68D31A022B01D90323C8
:102BBC00EFE0FFF7C8FB0346002BF1D07B681B68E6
:102BCC0003F02003002B16D07B685B691846FFF7D7
:102BDC00D2FAFEF785F9F86008E0FEF781F90246B3
:102BEC00FB68D31A022B01D90323D2E0FFF7BDFBFC
:102BFC000346002BF1D07B681B6803F04003002BCD
:102C0C0016D07B689B691846FFF7CBFAFEF768F97C
:102C1C00F86008E0FEF764F90246FB68D31A022B51
:102C2C0001D90323B5E0FFF7B3FB0346002BF1D02A
:102C3C007B681B6803F00403002B16D07B68DB68F1
:102C4C001846FFF7C5FAFEF74BF9F86008E0FEF7F7
:102C5C0047F90246FB68D31A022B01D9032398E0EB
:102C6C00FFF7A9FB0346002BF1D07B681B6803F030
:102C7C000803002B17D07B681B69DB001846FFF795
:102C8C00BBFAFEF72DF9F86008E0FEF729F90246C9
:102C9C00FB68D31A022B01D903237AE0FFF79DFBC3
:102CAC000346002BF1D07B681B6803F00103002B5B
:102CBC0043D07B685B68022B06D1FFF75BF80346B9
:102CCC00002B1ED1012364E07B685B68032B06D1CB
:102CDC00FFF7F6FA0346002B13D1012359E07B686A
:102CEC005B68002B06D1FFF7C3F90346002B08D114
:102CFC0001234EE0FFF76EF80346002B01D10123B0
:102D0C0047E07B685B681846FFF701FAFEF7E8F8C6
:102D1C00F8600AE0FEF7E4F80246FB68D31A41F2C9
:102D2C008832934201D9032333E0FFF704FA0246B9
:102D3C007B685B689B009A42ECD1184B1B6803F0D4
:102D4C0007033A689A421BD2144B1B6823F0070204
:102D5C0012493B6813430B60FEF7C2F8F86008E0B9
:102D6C00FEF7BEF80246FB68D31A022B01D90323E7
:102D7C000FE00A4B1B6803F007033A689A42EFD145
:102D8C00FDF766FFFEF7B8F803461846FEF75AF84B
:102D9C00034618461037BD4680BD00BF00400058A2
:102DAC0090B585B000AFFFF7C6F978607B68002B53
:102DBC000AD1FFF782F903461B0903F00F032A4AD5
:102DCC0052F82330FB604AE07B68042B02D1274B7E
:102DDC00FB6044E07B68082B0AD1FEF77DFF0346BD
:102DEC00012B02D1224BFB6039E0224BFB6036E019
:102DFC00FFF79DFA38603B68022B02D0032B03D0FF
:102E0C000DE01A4BBB6015E0FEF766FF0346012B85
:102E1C0002D1174BBB600DE0164BBB600AE0FFF70D
:102E2C004CF903461B0903F00F030F4A52F82330E9
:102E3C00BB6000BFFFF756FA0246BB6803FB02F407
:102E4C00FFF769FA03461B090133B4FBF3F4FFF7F0
:102E5C0056FA03465B0F0133B4FBF3F3FB60FB68DC
:102E6C0018461437BD4690BDD04A00080024F40023
:102E7C0000093D0000127A0098B500AFFFF790FFF3
:102E8C000446FFF7CDF903461B0903F00F03034A71
:102E9C0052F82330B4FBF3F3184698BD704A00087F
:102EAC0098B500AFFFF7E8FF0446FFF7D3F90346E8
:102EBC001B0A03F00703044A52F8233003F01F03E4
:102ECC0024FA03F3184698BDB04A000898B500AF31
:102EDC00FFF7D2FF0446FFF7C9F90346DB0A03F0FC
:102EEC000703044A52F8233003F01F0324FA03F3B8
:102EFC00184698BDB04A000890B585B000AF786010
:102F0C007B68B02B03D9154BDB6AFB6007E07B6851
:102F1C001B0903F00F03114A52F82330FB60FFF733
:102F2C008BF903461B0903F00F030D4A52F82330AB
:102F3C00FA68B2FBF3F3BB60BB680A4AA2FB03233B
:102F4C009C0CFEF7BBFE03461946204600F00CF81D
:102F5C00034618461437BD4690BD00BFD04A000842
:102F6C00704A000883DE1B4390B593B000AF7860C5
:102F7C003960394B07F128040FCB84E80F00374A2E
:102F8C0007F11C0307CA83E80700354B07F10C0453
:102F9C000FCB84E80F0000237B643B68B3F5007F04
:102FAC001CD100233B6415E03B6C9B0007F14802ED
:102FBC00134453F8203C7A689A4208D83B6C9B0027
:102FCC0007F14802134453F83C3C7B6422E03B6C11
:102FDC0001333B643B6C032BE6D91BE00023FB6302
:102FEC0015E0FB6B9B0007F14802134453F82C3C93
:102FFC007A689A4208D8FB6B9B0007F1480213448D
:10300C0053F83C3C7B6405E0FB6B0133FB63FB6BCF
:10301C00022BE6D9134B1B6823F0070211497B6C7A
:10302C0013430B60FDF75CFFB86308E0FDF758FF36
:10303C000246BB6BD31A022B01D9032307E0094BC1
:10304C001B6803F007037A6C9A42EFD100231846F1
:10305C004C37BD4690BD00BF344A0008444A0008B6
:10306C00504A00080040005880B483B000AF78602C
:10307C004FF0B043D3F888207B68134018460C37C8
:10308C00BD465DF8047B704780B483B000AF7860B8
:10309C004FF0B043D3F888207B68134018460C37A8
:1030AC00BD465DF8047B704780B582B000AF786098
:1030BC007B68002B01D1012342E07B68D3F8803080
:1030CC00002B06D17B68002283F87C207868FDF702
:1030DC0001FC7B682422C3F880207B681B681A687B
:1030EC007B681B6822F001021A60786800F04AFACB
:1030FC000346012B01D1012322E07B689B6A002B44
:10310C0002D0786800F04CFC7B681B685A687B68BE
:10311C001B6822F490425A607B681B689A687B6833
:10312C001B6822F02A029A607B681B681A687B680D
:10313C001B6842F001021A60786800F0D3FC034669
:10314C0018460837BD4680BD80B584B000AFF86026
:10315C00B9601346FB80FB68D3F88030202B68D114
:10316C00BB68002B02D0FB88002B01D1012361E04E
:10317C00FB6893F87C30012B01D102235AE0FB68E9
:10318C00012283F87C20FB68BA681A65FB68FA8810
:10319C00A3F85420FB68FA88A3F85620FB68002299
:1031AC00C3F88820FB682122C3F88020FB685B6F82
:1031BC00002B2CD0FB685B6F204ADA62FB685B6FDC
:1031CC001F4A1A63FB685B6F1E4A5A63FB685B6F8E
:1031DC0000229A63FB68586FFB681B6D1946FB68ED
:1031EC001B6828331A46FB88FEF76CF80346002B45
:1031FC000DD0FB681022C3F88820FB68002283F8EE
:10320C007C20FB682022C3F88020012312E0FB689D
:10321C001B6840221A62FB68002283F87C20FB6842
:10322C001B689A68FB681B6842F080029A60002356
:10323C0000E0022318461037BD4680BD033D000850
:10324C00573D0008733D000880B588B000AF78602A
:10325C007B681B68DB69FB617B681B681B68BB6157
:10326C007B681B689B687B61FA6940F60F0313400F
:10327C003B613B69002B18D1FB6903F02003002B49
:10328C0013D0BB6903F02003002B04D17B6903F03E
:10329C008053002B09D07B68DB6E002B00F045813E
:1032AC007B68DB6E786898473FE13B69002B00F048
:1032BC00E8807A69A14B1340002B05D1BA69A04B69
:1032CC001340002B00F0DD80FB6903F00103002BA1
:1032DC0010D0BB6903F48073002B0BD07B681B6888
:1032EC0001221A627B68D3F8883043F001027B68B4
:1032FC00C3F88820FB6903F00203002B10D07B6914
:10330C0003F00103002B0BD07B681B6802221A62AE
:10331C007B68D3F8883043F004027B68C3F88820BC
:10332C00FB6903F00403002B10D07B6903F001034D
:10333C00002B0BD07B681B6804221A627B68D3F8C5
:10334C00883043F002027B68C3F88820FB6903F0E5
:10335C000803002B15D0BB6903F02003002B04D10C
:10336C007A69764B1340002B0BD07B681B680822C4
:10337C001A627B68D3F8883043F008027B68C3F884
:10338C008820FB6903F40063002B11D0BB6903F0A8
:10339C008063002B0CD07B681B684FF400621A62B0
:1033AC007B68D3F8883043F020027B68C3F8882010
:1033BC007B68D3F88830002B00F0B980FB6903F0F0
:1033CC002003002B11D0BB6903F02003002B04D188
:1033DC007B6903F08053002B07D07B68DB6E002BDE
:1033EC0003D07B68DB6E786898477B68D3F88830AD
:1033FC00FB607B681B689B6803F04003402B04D088
:10340C00FB6803F02803002B31D0786800F050FCE7
:10341C007B681B689B6803F04003402B23D17B68BF
:10342C001B689A687B681B6822F040029A607B6874
:10343C009B6F002B13D07B689B6F424A9A637B680F
:10344C009B6F1846FDF7B9FF0346002B17D07B681E
:10345C009B6F9B6B7A68926F104698470FE0786869
:10346C0000F086F80BE0786800F082F807E07868E6
:10347C0000F07EF87B680022C3F8882057E000BF7C
:10348C0055E0FB6903F48013002B0DD07B6903F42A
:10349C008003002B08D07B681B684FF480121A62E3
:1034AC00786800F0D0FC45E0FB6903F08003002B4A
:1034BC0012D0BB6903F08003002B04D17B6903F4A9
:1034CC000003002B08D07B681B6F002B31D07B686E
:1034DC001B6F786898472CE0FB6903F04003002BC6
:1034EC0008D0BB6903F04003002B03D0786800F0D0
:1034FC0090FC1FE0FB6903F40003002B08D0BB69B0
:10350C0003F08043002B03D0786800F0B0FC11E08E
:10351C00FB6903F08073002B0CD0BB69002B09DA1C
:10352C00786800F09AFC00BF04E000BF02E000BF26
:10353C0000E000BF2037BD4680BD00BF0100001079
:10354C0020010004F33D000880B483B000AF786024
:10355C0000BF0C37BD465DF8047B704780B483B068
:10356C0000AF786000BF0C37BD465DF8047B704738
:10357C0080B483B000AF786000BF0C37BD465DF8F7
:10358C00047B70472DE9904888B000AF7860002329
:10359C00BB767B689A687B681B691A437B685B699E
:1035AC001A437B68DB691343FB617B685B6EFA69CA
:1035BC001343FB617B681B681A68A44B13407A6841
:1035CC001268F9690B4313607B681B685B6823F412
:1035DC0040517B68DA687B681B680A435A607B68D9
:1035EC009B69FB617B681B68994A934204D07B689A
:1035FC001B6AFA691343FB617B681B689B6823F0A9
:10360C006E4323F430637A681268F9690B43936054
:10361C007B681B68DB6A23F00F017B685A6A7B6846
:10362C001B680A43DA627B681B688A4A934221D181
:10363C000320FFF719FD0346032B17D801A252F8FC
:10364C0023F000BF613600086D36000867360008AD
:10365C00733600080123FB7638E00223FB7635E055
:10366C000423FB7632E00823FB762FE01023FB7655
:10367C0000BF2BE07B681B68754A934224D14FF442
:10368C004060FFF701FD0346B3F5806F12D0B3F530
:10369C00806F02D8002B07D012E0B3F5006F06D074
:1036AC00B3F5406F09D00BE00023FB760EE002234C
:1036BC00FB760BE00423FB7608E00823FB7605E0A1
:1036CC001023FB7600BF01E01023FB767B681B68A0
:1036DC005F4A934240F08E80FB7E082B23D801A2D8
:1036EC0052F823F015370008333700081D3700084F
:1036FC003337000823370008333700083337000806
:10370C00333700082B370008FFF7CAFB78610FE04E
:10371C00514B7B610CE0FFF743FB786108E04FF401
:10372C0000437B6104E000237B610123BB7600BF77
:10373C007B69002B00F01C817B685B6A474A32F87E
:10374C0013301A467B69B3FBF2F3BB607B685A6893
:10375C0013465B001344BA689A4205D37B685B68D6
:10376C001B03BA689A4202D90123BB7600E17B693C
:10377C0018464FF000017B685B6A384A32F8133008
:10378C009BB24FF000041A462346FCF7F1FC0346AB
:10379C000C46194622464FF000034FF00004140269
:1037AC0044EA11640B027A685268520811464FF0D1
:1037BC00000213EB010B44EB020C584661467B688C
:1037CC005B684FF000041A462346FCF7D1FC034615
:1037DC000C463B613B69B3F5407F08D33B69B3F5BD
:1037EC00801F04D27B681B683A69DA60C0E0012351
:1037FC00BB76BDE07B68DB69B3F5004F69D1FB7E1E
:10380C00013B072B2CD801A252F823F039380008C1
:10381C00413800086D380008473800086D3800083A
:10382C006D3800086D3800084F380008FFF74EFB64
:10383C0078611AE0084B7B6117E0FFF7B1FA786109
:10384C0013E04FF400437B610FE000BFF369FFCF3F
:10385C0000800040003801400024F400104B0008A8
:10386C0000237B610123BB7600BF7B69002B7FD0DB
:10387C007B685B6A484A32F813301A467B69B3FBA3
:10388C00F2F35A007B685B685B081A447B685B68E0
:10389C00B2FBF3F39BB23B613B690F2B16D93B692F
:1038AC00B3F5803F12D23B699BB223F00F03FB812F
:1038BC003B695B089BB203F007039AB2FB89134385
:1038CC00FB817B681B68FA89DA6051E00123BB76C7
:1038DC004EE0FB7E013B072B21D801A252F823F0CE
:1038EC000D390008153900082B3900081B39000860
:1038FC002B3900082B3900082B3900082339000814
:10390C00FFF7E4FA78610FE0244B7B610CE0FFF7E2
:10391C0047FA786108E04FF400437B6104E0002330
:10392C007B610123BB7600BF7B69002B20D07B68B9
:10393C005B6A194A32F813301A467B69B3FBF2F210
:10394C007B685B685B081A447B685B68B2FBF3F3CB
:10395C009BB23B613B690F2B08D93B69B3F5803FA8
:10396C0004D27B681B683A69DA6001E00123BB76FC
:10397C007B680122A3F86A207B680122A3F86820E7
:10398C007B680022DA667B6800221A67BB7E1846C9
:10399C002037BD46BDE89088104B00080024F40089
:1039AC0080B483B000AF78607B689B6A03F001033E
:1039BC00002B0AD07B681B685B6823F400317B68A2
:1039CC00DA6A7B681B680A435A607B689B6A03F05F
:1039DC000203002B0AD07B681B685B6823F48031E0
:1039EC007B681A6B7B681B680A435A607B689B6A0E
:1039FC0003F00403002B0AD07B681B685B6823F47C
:103A0C0080217B685A6B7B681B680A435A607B6811
:103A1C009B6A03F00803002B0AD07B681B685B6869
:103A2C0023F400417B689A6B7B681B680A435A60DD
:103A3C007B689B6A03F01003002B0AD07B681B6821
:103A4C009B6823F480517B68DA6B7B681B680A43A4
:103A5C009A607B689B6A03F02003002B0AD07B687A
:103A6C001B689B6823F400517B681A6C7B681B688D
:103A7C000A439A607B689B6A03F04003002B1AD0C0
:103A8C007B681B685B6823F480117B685A6C7B68CD
:103A9C001B680A435A607B685B6CB3F5801F0AD1C4
:103AAC007B681B685B6823F4C0017B689A6C7B683D
:103ABC001B680A435A607B689B6A03F08003002BE7
:103ACC000AD07B681B685B6823F400217B68DA6C86
:103ADC007B681B680A435A6000BF0C37BD465DF813
:103AEC00047B704780B586B002AF78607B6800229B
:103AFC00C3F88820FDF7F4F9F8607B681B681B6835
:103B0C0003F00803082B0ED16FF07E430093FB6883
:103B1C0000224FF40011786800F02CF80346002BBB
:103B2C0001D0032322E07B681B681B6803F00403AD
:103B3C00042B0ED16FF07E430093FB6800224FF4F0
:103B4C008001786800F016F80346002B01D003239F
:103B5C000CE07B682022C3F880207B682022C3F80D
:103B6C0084207B68002283F87C20002318461037C1
:103B7C00BD4680BD80B584B000AFF860B9603B60D5
:103B8C001346FB7162E0BB69B3F1FF3F5ED0FDF7FA
:103B9C00A7F902463B68D31ABA699A4202D3BB69A9
:103BAC00002B1DD1FB681B681A68FB681B6822F48C
:103BBC00D0721A60FB681B689A68FB681B6822F05D
:103BCC0001029A60FB682022C3F88020FB68202247
:103BDC00C3F88420FB68002283F87C20032345E093
:103BEC00FB681B681B6803F00403002B2ED0FB68DA
:103BFC001B68DB6903F40063B3F5006F26D1FB6827
:103C0C001B684FF400621A62FB681B681A68FB6839
:103C1C001B6822F4D0721A60FB681B689A68FB68F8
:103C2C001B6822F001029A60FB682022C3F88020F6
:103C3C00FB682022C3F88420FB682022C3F888206C
:103C4C00FB68002283F87C2003230FE0FB681B68D1
:103C5C00DA69BB681340BA689A420CBF012300238F
:103C6C00DBB21A46FB799A428DD0002318461037E6
:103C7C00BD4680BD80B483B000AF78607B681B68A4
:103C8C001A687B681B6822F0C0021A607B681B688C
:103C9C009A687B681B6822F400029A607B68202279
:103CAC00C3F8802000BF0C37BD465DF8047B70471D
:103CBC0080B483B000AF78607B681B681A687B683F
:103CCC001B6822F490721A607B681B689B687A6888
:103CDC00126823F0805323F0010393607B68202249
:103CEC00C3F884207B680022DA6600BF0C37BD461F
:103CFC005DF8047B704780B584B000AF78607B685A
:103D0C009B6AFB607B681B681B6803F02003002B1D
:103D1C0014D1FB680022A3F85620FB681B689A6834
:103D2C00FB681B6822F080029A60FB681B681A68AB
:103D3C00FB681B6842F040021A6002E0F868FFF76B
:103D4C0003FC00BF1037BD4680BD80B584B000AF0A
:103D5C0078607B689B6AFB60F868FFF7FFFB00BF2D
:103D6C001037BD4680BD80B586B000AF78607B68EB
:103D7C009B6A7B617B69D3F880303B617B69D3F8AC
:103D8C008430FB607B691B689B6803F08003802B8D
:103D9C0009D13B69212B06D17B690022A3F856205F
:103DAC007869FFF767FF7B691B689B6803F040032A
:103DBC00402B09D1FB68222B06D17B690022A3F88A
:103DCC005E207869FFF774FF7B69D3F8883043F085
:103DDC0010027B69C3F888207869FFF7C9FB00BF24
:103DEC001837BD4680BD80B584B000AF78607B6865
:103DFC009B6AFB60FB680022A3F85E20FB68002234
:103E0C00A3F85620F868FFF7B3FB00BF1037BD4688
:103E1C0080BD80B582B000AF78607B681B681A6883
:103E2C007B681B6822F040021A607B682022C3F872
:103E3C0080207B6800221A677868FFF785FB00BF3B
:103E4C000837BD4680BD80B483B000AF786000BF3A
:103E5C000C37BD465DF8047B704780B483B000AF6F
:103E6C00786000BF0C37BD465DF8047B704780B4AA
:103E7C0083B000AF786000BF0C37BD465DF8047BA3
:103E8C00704780B485B000AF78607B6893F87C3065
:103E9C00012B01D1022327E07B68012283F87C20CF
:103EAC007B682422C3F880207B681B681B68FB603E
:103EBC007B681B681A687B681B6822F001021A6019
:103ECC00FB6823F00053FB607B6800225A667B681A
:103EDC001B68FA681A607B682022C3F880207B6814
:103EEC00002283F87C20002318461437BD465DF869
:103EFC00047B704780B584B000AF786039607B6814
:103F0C0093F87C30012B01D102232DE07B68012238
:103F1C0083F87C207B682422C3F880207B681B6894
:103F2C001B68FB607B681B681A687B681B6822F047
:103F3C0001021A607B681B689B6823F060417B68F8
:103F4C001B683A680A439A60786800F04FF87B68FF
:103F5C001B68FA681A607B682022C3F880207B6893
:103F6C00002283F87C20002318461037BD4680BD04
:103F7C0080B584B000AF786039607B6893F87C3092
:103F8C00012B01D102232DE07B68012283F87C20D8
:103F9C007B682422C3F880207B681B681B68FB604D
:103FAC007B681B681A687B681B6822F001021A6028
:103FBC007B681B689B6823F060617B681B683A68B0
:103FCC000A439A60786800F011F87B681B68FA68FD
:103FDC001A607B682022C3F880207B68002283F85B
:103FEC007C20002318461037BD4680BD80B489B0B4
:103FFC0000AF78602F4A07F1140392E8030083E8BE
:10400C0003002D4A07F10C0392E8030083E8030038
:10401C007B685B6E002B08D17B680122A3F86A20B9
:10402C007B680122A3F868203DE00823FB77082376
:10403C00BB777B681B689B685B0EDBB203F00703E6
:10404C007B777B681B689B685B0FDBB203F0070315
:10405C003B77BB7F3A7F07F120010A4412F80C2C06
:10406C0002FB03F33A7F07F120010A4412F8142CE7
:10407C0093FBF2F39AB27B68A3F86A20FB7F7A7FFA
:10408C0007F120010A4412F80C2C02FB03F37A7F8F
:10409C0007F120010A4412F8142C93FBF2F39AB2A4
:1040AC007B68A3F8682000BF2437BD465DF8047B0D
:1040BC00704700BF604A0008684A0008014B186846
:1040CC00704700BF1000002070B50D4E0D4CA41BA6
:1040DC00A4100025A54209D10B4E0C4C00F088FC15
:1040EC00A41BA4100025A54205D170BD56F825309F
:1040FC0098470135EEE756F8253098470135F2E739
:10410C00944B0008944B0008944B0008984B000803
:10411C0002440346934200D1704703F8011BF9E7B0
:10412C0070B50E46054618B183690BB900F00CFA50
:10413C00AB69AC6813B9284600F006FA234B9C42D5
:10414C0017D16C68A3891B071DD52369DBB1013E10
:10415C00A36816F8011F013BA360E9B9002B2EDA06
:10416C0022460A21284600F03FF8013011D00A20DF
:10417C0011E0174B9C4201D1AC68E3E7154B9C4214
:10418C0008BFEC68DEE72146284600F07FF80028DF
:10419C00DDD04FF0FF3070BD002B04DAA2699A42DB
:1041AC0006DC0A2904D023685A1C22601970CFE758
:1041BC002246284600F018F80130C9D1E9E72368F7
:1041CC000A205A1C22601870E5E700BF4C4B00080F
:1041DC006C4B00082C4B0008024B01461868FFF78B
:1041EC009FBF00BF10000020F8B50E4614460546D0
:1041FC0018B183690BB900F0A7F9214B9C422AD165
:10420C006C68A369A360A3891A072ED5236963B3CD
:10421C0023692068C01A6369F6B28342374604DC0E
:10422C002146284600F026F928BBA368013BA36071
:10423C0023685A1C22601E7063690130834204D0CB
:10424C00A389DB0719D50A2E17D12146284600F081
:10425C0011F990B10FE00B4B9C4201D1AC68D0E747
:10426C00094B9C4208BFEC68CBE72146284600F07E
:10427C000DF80028CCD04FF0FF373846F8BD00BF02
:10428C004C4B00086C4B00082C4B0008324B70B5A3
:10429C001D6806460C4625B1AB6913B9284600F0DB
:1042AC0053F92E4B9C420FD16C68B4F90C309AB276
:1042BC0015072CD4D00611D40922326043F04003E8
:1042CC00A3814FF0FF303EE0254B9C4201D1AC68FE
:1042DC00EBE7244B9C4208BFEC68E6E7510712D58C
:1042EC00616B41B104F14403994202D0304600F0B5
:1042FC0019FA00236363A38923F02403A381002309
:10430C00636023692360A38943F00803A3812369B5
:10431C004BB9A38903F42073B3F5007F03D0214676
:10432C00304600F0BFF9A28912F001030CD0002333
:10433C00A36063695B42A361236953B9B4F90C3080
:10434C0013F08000BAD170BD920758BF6369A360A7
:10435C00F2E70020F7E700BF100000204C4B0008EC
:10436C006C4B00082C4B00088A892DE9F04105465E
:10437C0010070C4658D44B68002B05DC0B6C002B3B
:10438C0002DC0020BDE8F081E66A002EF9D00023A3
:10439C0012F480522F68216A2B6032D0606DA38991
:1043AC005A0705D56368C01A636B0BB1236CC01A2E
:1043BC0000230246E66A216A2846B047431CA389BB
:1043CC0006D129681D2948D8294ACA40D60744D5A0
:1043DC0000226260D9042269226004D5421C01D1FA
:1043EC002B6803B96065616B2F600029C9D004F19B
:1043FC004403994202D0284600F094F900206063EF
:10440C00C0E701232846B047411CC8D12B68002BBC
:10441C00C5D01D2B01D0162B01D12F60B1E7A3897C
:10442C0043F04003A381ADE70F69002FA9D0930798
:10443C000E6808BF4B690F6018BF0023A6EB070876
:10444C008B60B8F1000F9CDD43463A46216AA66AA0
:10445C002846B047002806DCA38943F04003A3811B
:10446C004FF0FF308EE70744A8EB0008E9E700BFE8
:10447C000100402038B50B6905460C46DBB118B17C
:10448C0083690BB900F060F80C4B9C4209D16C6845
:10449C00B4F90C307BB121462846BDE83840FFF713
:1044AC0063BF074B9C4201D1AC68F1E7054B9C42C2
:1044BC0008BFEC68ECE7002038BD00BF4C4B00088F
:1044CC006C4B00082C4B0008002310B50446C0E9C7
:1044DC000033836081814366C281C0E90433836108
:1044EC00194608225C30FFF713FE054B6362054B3F
:1044FC00A362054BE362054B2462236310BD00BF2E
:10450C00A1480008C3480008FB4800081F490008E0
:10451C00014900F085B800BF8144000870B54A1EFF
:10452C00682555430E4605F1740100F049F904461F
:10453C0040B10021C0E900160C30A06005F1680202
:10454C00FFF7E6FD204670BD836910B5044633BB0A
:10455C00C0E912330365124B124A1B6882629842FF
:10456C0004BF0123836100F01FF86060204600F057
:10457C001BF8A060204600F017F80022E060042130
:10458C006068FFF7A1FF01220921A068FFF79CFFDB
:10459C0002221221E068FFF797FF0123A36110BDEF
:1045AC00284B00081D450008F8B51B4B1E68B36965
:1045BC00074613B93046FFF7C7FF4836D6E9013432
:1045CC00013B03D5336833B13668F7E7B4F90C50C7
:1045DC006DB16834F4E704213846FFF79FFF306073
:1045EC000028F1D10C233B6004462046F8BD0B4B50
:1045FC006566C4E90055A560C4E90335C4E90555F1
:10460C000822294604F15C00FFF782FDC4E90D5530
:10461C00C4E91255E9E700BF284B00080100FFFF71
:10462C002DE9F8438046894600F14804002614B968
:10463C003046BDE8F883D4E90175013F01D5246803
:10464C00F5E7AB89012B07D9B5F90E30013303D04F
:10465C0029464046C84706436835EEE770B50E4616
:10466C00B1F90E10002996B014461D4607DA002346
:10467C002B60B3891A0610D44FF480630EE06A469F
:10468C0000F06EF90028F2DB019A02F47042A2F5F8
:10469C0000535A425A412A60EEE74023002023601F
:1046AC0016B070BD8B8973B59D0706460C4607D5B1
:1046BC0004F14703236023610123636102B070BDE1
:1046CC0001AB6A46FFF7CAFF00990546304600F079
:1046DC0077F848B9B4F90C309A05EFD423F00303FA
:1046EC0043F00203A381E3E70D4BB362A38920607F
:1046FC0043F08003A381009B6361019B20615BB14C
:10470C00B4F90E10304600F03DF928B1A38923F01E
:10471C00030343F00103A381A3891D43A581CDE7C6
:10472C001D45000838B50546002945D051F8043C14
:10473C000C1F002BB8BFE41800F046F91F4A136891
:10474C00104633B9636014602846BDE8384000F069
:10475C003CB9A3420CD921686218934204BF1A6871
:10476C005B68636004BF521822600460ECE7134678
:10477C005A680AB1A242FAD919685818A0420BD14A
:10478C0020680144581882421960DDD110685268C3
:10479C005A6001441960D7E702D90C232B60D3E788
:1047AC00206821188A4204BF11685268626004BFF5
:1047BC00091821605C60C7E738BD00BF9400002079
:1047CC0070B5CD1C25F0030508350C2D38BF0C2514
:1047DC00002D064601DBA94203D90C2333600020CF
:1047EC0070BD00F0F1F8214A1468214691B9204CB3
:1047FC0023681BB9304600F03DF82060294630464E
:10480C0000F038F8431C24D10C233360304600F000
:10481C00DCF8E4E70B685B1B18D40B2B0FD90B608F
:10482C00CD50CC18304600F0D0F804F10B00231D0D
:10483C0020F00700C31AD3D05A42E250D0E78C4282
:10484C004B6816BF636013600C46EBE70C46496877
:10485C00CCE7C41C24F00304A04205D0211A304636
:10486C0000F008F80130CFD02560DBE79400002081
:10487C009800002038B5064C0023054608462360F6
:10488C00FCF75AF9431C02D1236803B12B6038BDE5
:10489C004002002010B50C46B1F90E1000F096F84D
:1048AC000028ABBF636DA3891B1823F48053ACBFE6
:1048BC006365A38110BD2DE9F0411F468B89DB0593
:1048CC0005460C46164605D502230022B1F90E10FA
:1048DC0000F068F8A389B4F90E1023F48053A38177
:1048EC0032463B462846BDE8F04100F017B810B5FB
:1048FC000C46B1F90E1000F055F8431CA38915BFF6
:10490C00606523F4805343F48053A38118BFA381C3
:10491C0010BDB1F90E1000F013B8000038B5074CFB
:10492C00054608461146002222601A46FCF7B3F8E9
:10493C00431C02D1236803B12B6038BD4002002018
:10494C0038B5064C0023054608462360FCF7BFF833
:10495C00431C02D1236803B12B6038BD40020020F8
:10496C0038B5074C00230546084611462360FCF772
:10497C00BAF8431C02D1236803B12B6038BD00BFC9
:10498C004002002038B5064C00230546084623603B
:10499C00FCF7B9F8431C02D1236803B12B6038BD76
:1049AC004002002038B5074C054608461146002247
:1049BC0022601A46FCF7B2F8431C02D1236803B1FB
:1049CC002B6038BD400200207047704738B5074C4B
:1049DC00054608461146002222601A46FCF73EF8AE
:1049EC00431C02D1236803B12B6038BD4002002068
:1049FC00F8B500BFF8BC08BC9E467047F8B500BFC0
:084A0C00F8BC08BC9E4670478F
:104A1400212121205374617274202121212000005E
:104A2400212121204C6F6F702021212120000000C2
:104A340012000000240000003600000040000000C6
:104A4400060000000C000000100000000000000040
:104A54000100000002000000030000000101010346
:104A6400070100000804020408010101010000001C
:104A74000300000005000000010000000100000028
:104A8400060000000A0000002000000002000000F0
:104A940004000000080000001000000040000000B6
:104AA400800000000001000000020000000000007F
:104AB40000000000000000000000000001000000F1
:104AC400020000000300000004000000A0860100B2
:104AD400400D0300801A060000350C0040420F0010
:104AE40080841E0000093D0000127A000024F400B6
:104AF40000366E010048E801006CDC020000000092
:104B0400000000000000000000000000010002009E
:104B14000400060008000A000C00100020004000F9
:104B240080000001140000200000000000000000CC
:104B34000000000000000000000000000000000071
:104B44000000000000000000000000000000000061
:104B54000000000000000000000000000000000051
:104B64000000000000000000000000000000000041
:104B74000000000000000000000000000000000031
:084B8400000000000000000029
:084B8C0020B6FF7F01000000CC
:044B940061010008B3
:044B98003D010008D3
:104B9C0000093D001000000001000000140000207E
:104BAC00000000004C4B00086C4B00082C4B00081C
:104BBC0000000000000000000000000000000000E9
:104BCC0000000000000000000000000000000000D9
:104BDC0000000000000000000000000000000000C9
:104BEC0000000000000000000000000000000000B9
:104BFC0000000000000000000000000000000000A9
:0400000508000DB929
:00000001FF
