:020000040800F2
:1000000000000320511000080D0C00081B0C000814
:10001000210C0008270C00082D0C0008000000002F
:10002000000000000000000000000000330C000889
:10003000410C0008000000004F0C00085D0C000897
:10004000A5100008A5100008A5100008A5100008BC
:10005000A5100008A5100008A5100008A5100008AC
:10006000A5100008A5100008A5100008690C0008DC
:100070007D0C0008910C0008A50C0008A5100008D4
:10008000A5100008A5100008A5100008A51000087C
:10009000A5100008A5100008A5100008A51000086C
:1000A000A5100008A5100008A5100008A51000085C
:1000B000A5100008A5100008B90C0008CD0C000818
:1000C000A5100008A5100008A5100008A51000083C
:1000D000E10C0008A5100008A5100008A5100008F4
:1000E000A5100008A5100008A5100008A51000081C
:1000F000A5100008A5100008F50C0008A5100008C0
:10010000A5100008A5100008A5100008A5100008FB
:10011000A5100008A5100008A5100008A5100008EB
:10012000A5100008A5100008A5100008A5100008DB
:0C013000A5100008A5100008A51000088C
:10013C0010B5054C237833B9044B13B10448AFF315
:10014C0000800123237010BD74000020000000000B
:10015C008C69000808B5034B1BB103490348AFF386
:10016C00008008BD00000000780000208C690008A9
:10017C0053B94AB9002908BF00281CBF4FF0FF3102
:10018C004FF0FF3000F072B9ADF1080C6DE904CE00
:10019C0000F006F8DDF804E0DDE9022304B0704756
:1001AC002DE9F047089E04468846002B4BD18A4225
:1001BC00154667D9B2FA82F24AB1C2F1200701FAA8
:1001CC0002F320FA07F7954047EA030894404FEAF8
:1001DC00154E230CB8FBFEF71FFA85FC0EFB178897
:1001EC0043EA084307FB0CF1994209D9EB1807F1D4
:1001FC00FF3080F01B81994240F21881023F2B4462
:10020C005B1AA4B2B3FBFEF00EFB103344EA0344BA
:10021C0000FB0CFCA44509D92C1900F1FF3380F02C
:10022C000781A44540F2048102382C4440EA07407F
:10023C00A4EB0C0400271EB1D4400023C6E90043F4
:10024C003946BDE8F0878B4209D9002E00F0EB80CF
:10025C000027C6E9000138463946BDE8F087B3FAF5
:10026C0083F7002F47D18B4202D3824200F2FA80EF
:10027C00841A61EB030301209846002EE0D0C6E9F6
:10028C000048DDE702B9FFDEB2FA82F2002A40F044
:10029C008F80491B4FEA154E1FFA85F80127B1FBD9
:1002AC00FEFC230C0EFB1C1143EA014308FB0CF172
:1002BC00994207D9EB180CF1FF3002D2994200F2A7
:1002CC00CD808446591AA3B2B1FBFEF00EFB10147C
:1002DC0043EA044408FB00F8A04507D92C1900F1A7
:1002EC00FF3302D2A04500F2B6801846A4EB0804F6
:1002FC0040EA0C409FE7C7F1200CBB4022FA0CFEF1
:10030C004EEA030E01FA07F420FA0CF521FA0CF36D
:10031C004FEA1E482543B3FBF8F92C0C08FB1933A4
:10032C001FFA8EFA44EA034309FB0AF49C4202FAD0
:10033C0007F200FA07F10BD91EEB030309F1FF30AA
:10034C0080F087809C4240F28480A9F102097344BA
:10035C001B1BADB2B3FBF8F008FB103345EA0344AA
:10036C0000FB0AFAA24508D91EEB040400F1FF3386
:10037C006BD2A24569D90238744440EA0940A0FB0B
:10038C000289A4EB0A044C45C2464B4654D351D0C7
:10039C00002E69D0B1EB0A0564EB030404FA0CFCE3
:1003AC00FD40FC404CEA0505C6E90054002747E730
:1003BC00C2F1200320FA03F7954001FA02F021FA6A
:1003CC0003F34FEA154E3843010CB3FBFEF71FFA4B
:1003DC0085F80EFB173341EA034107FB08F38B4208
:1003EC0004FA02F407D9691807F1FF3C2FD28B42AB
:1003FC002DD9023F2944CB1A81B2B3FBFEF00EFB80
:10040C00103341EA034100FB08F38B4207D969180A
:10041C0000F1FF3C17D28B4215D902382944C91A76
:10042C0040EA07473BE73746304609E70746E7E629
:10043C001846FBE64145ABD2B8EB020A69EB0E025B
:10044C0001381346A4E76046E9E7184695E7674686
:10045C00D1E781467CE702382C4447E7ACF1020C2B
:10046C002B442FE7384608E73746E9E6704700BFCC
:10047C0080B485B000AF78604FF0B0439A6C4FF009
:10048C00B0417B6813438B644FF0B0439A6C7B682C
:10049C001340FB60FB6800BF1437BD465DF8047B5E
:1004AC00704780B485B000AF78604FF0B043DA6C21
:1004BC004FF0B0417B681343CB644FF0B043DA6C20
:1004CC007B681340FB60FB6800BF1437BD465DF8CA
:1004DC00047B704780B500AF00F0E0FD00F018F829
:1004EC0000F040F900F014F900F0C6F800F084F8C0
:1004FC00044805F039FE64220349044801F052FD1A
:10050C00FEE700BFA4690008F4020020FC000020F4
:10051C0080B5AEB000AF07F1700348220021184639
:10052C0005F0BEFD07F1540300221A605A609A6070
:10053C00DA601A615A619A613B1D502200211846FB
:10054C0005F0AEFD2B4B1B6823F4C063294A43F422
:10055C0000731360274B1B6803F4C0633B603B685C
:10056C0003233B674FF480337B674FF48073FB6747
:10057C004023C7F880300023C7F89C3007F1700384
:10058C00184603F06DFB0346002B01D000F08EF9EA
:10059C006F237B650223BB650023FB6500233B6651
:1005AC0000237B660023BB660023FB6607F1540324
:1005BC000121184603F0E8FE0346002B01D000F0A1
:1005CC0075F942F205037B600023FB614FF4403365
:1005DC007B620223FB6400233B653B1D184604F041
:1005EC000EFB0346002B01D000F060F900BFB837BA
:1005FC00BD4680BD0004005880B500AF1B4B1C4AA3
:10060C001A601A4B1B4A5A60184BA0229A60174B5F
:10061C000122DA60154B00221A61144B00225A6138
:10062C00124B00229A61114B0022DA610F4B00220F
:10063C001A620E4801F070FB0346002B01D000F04B
:10064C0035F90021094802F0C1FE0346002B01D008
:10065C0000F02CF90021054802F003FF0346002BA3
:10066C0001D000F023F900BF80BD00BFFC000020CA
:10067C0000540040BB7C700080B500AF224B234A75
:10068C001A60214B4FF4E1325A601F4B00229A60E2
:10069C001D4B0022DA601C4B00221A611A4B0C22F3
:1006AC005A61194B00229A61174B0022DA61164BE2
:1006BC0000221A62144B00225A62134B00229A62D7
:1006CC00114804F042FD0346002B01D000F0EEF877
:1006DC0000210D4805F0D6FB0346002B01D000F09D
:1006EC00E5F80021084805F00BFC0346002B01D06F
:1006FC0000F0DCF8044805F08CFB0346002B01D01D
:10070C0000F0D4F800BF80BD080200200038014082
:10071C0080B500AF0420FFF7ABFE0120FFF7A8FE69
:10072C00002200210B2000F01AFE0B2000F031FEFD
:10073C00002200210C2000F012FE0C2000F029FEFB
:10074C00002200210D2000F00AFE0D2000F021FEF9
:10075C00002200210E2000F002FE0E2000F019FEF7
:10076C0000BF80BD80B586B000AF3B1D00221A6073
:10077C005A609A60DA601A610420FFF792FE022038
:10078C00FFF78FFE0820FFF78CFE0022232115486F
:10079C0001F06CFA10237B600023BB600123FB602B
:1007AC003B1D1946104801F0F1F823237B6001230F
:1007BC00BB600023FB6000233B613B1D19460948CD
:1007CC0001F0E4F803237B600023BB600123FB6092
:1007DC003B1D1946054801F0D9F800BF1837BD4636
:1007EC0080BD00BF0004004800080048000C004811
:1007FC0080B582B000AF7860391D4FF6FF730122CF
:10080C00034804F0F2FC7B6818460837BD4680BDEF
:10081C000802002080B483B000AF786000BF0C37B2
:10082C00BD465DF8047B704780B483B000AF786040
:10083C0000BF0C37BD465DF8047B704780B582B0B5
:10084C0000AF7860074805F08FFC0221064801F0E4
:10085C0025FA64220549064801F0A4FB00BF0837BD
:10086C00BD4680BDB069000800040048F4020020B9
:10087C00FC00002080B582B000AF7860074805F01E
:10088C0073FC0121064801F009FA64220549064867
:10089C0001F0D2FA00BF0837BD4680BDC069000820
:1008AC0000040048F4020020FC00002080B400AFDB
:1008BC0000BFBD465DF8047B704780B485B000AFC7
:1008CC0078604FF0B043DA6C4FF0B0417B68134363
:1008DC00CB644FF0B043DA6C7B681340FB60FB6871
:1008EC0000BF1437BD465DF8047B704780B485B0FB
:1008FC0000AF78604FF0B0431A6D4FF0B0417B6899
:10090C0013430B654FF0B0431A6D7B681340FB60CB
:10091C00FB6800BF1437BD465DF8047B704780B49C
:10092C0085B000AF78604FF0B0439A6D4FF0B04196
:10093C007B6813438B654FF0B0439A6D7B68134013
:10094C00FB60FB6800BF1437BD465DF8047B704745
:10095C0080B485B000AF78604FF0B0431A6E4FF0A2
:10096C00B0417B6813430B664FF0B0431A6E7B6843
:10097C001340FB60FB6800BF1437BD465DF8047B79
:10098C00704780B500AF4FF40020FFF7AFFF002297
:10099C0000212E2000F0E3FC2E2000F0FAFC00BF1A
:1009AC0080BD000080B588B000AF786007F10C0303
:1009BC0000221A605A609A60DA601A617B681B68C0
:1009CC00404A934279D10220FFF777FF4FF44073EE
:1009DC00FB6012233B6101237B610023BB61042379
:1009EC00FB6107F10C031946374800F0CFFF4FF4B9
:1009FC000010FFF794FF354B354A1A60334B0A222F
:100A0C005A60324B00229A60304B0022DA602F4B36
:100A1C0080221A612D4B00225A612C4B00229A61C4
:100A2C002A4B0022DA61294B00221A62274800F077
:100A3C00CBFC0346002B01D0FFF738FF7B68234A21
:100A4C00DA63224A7B689362224B234A1A60214B59
:100A5C000B225A601F4B10229A601E4B0022DA6048
:100A6C001C4B80221A611B4B00225A61194B00222D
:100A7C009A61184B0022DA61164B00221A62154853
:100A8C0000F0A2FC0346002B01D0FFF70FFF7B68A0
:100A9C00104A9A630F4A7B689362002200211E2041
:100AAC0000F05DFC1E2000F074FC002200211F20D1
:100ABC0000F055FC1F2000F06CFC00BF2037BD4639
:100ACC0080BD00BF00540040000400489402002088
:100ADC00300002409C0000204400024080B588B0E9
:100AEC0000AF786007F10C0300221A605A609A601C
:100AFC00DA601A617B681B683B4A934270D14FF4F1
:100B0C008040FFF725FF0220FFF7D7FEC023FB60D4
:100B1C0002233B6100237B610023BB610723FB6144
:100B2C0007F10C031946314800F030FF304B314AC5
:100B3C001A602F4B0E225A602D4B00229A602C4BC0
:100B4C000022DA602A4B80221A61294B00225A615A
:100B5C00274B00229A61264B0022DA61244B00229B
:100B6C001A62234800F030FC0346002B01D0FFF73B
:100B7C009DFE7B681E4A9A671D4A7B6893621E4BDA
:100B8C001E4A1A601C4B0F225A601B4B10229A6093
:100B9C00194B0022DA60184B80221A61164B002286
:100BAC005A61154B00229A61134B0022DA61124BE9
:100BBC0000221A62104800F007FC0346002B01D0FB
:100BCC00FFF774FE7B680C4A5A670B4A7B6893628A
:100BDC0000220021242000F0C2FB242000F0D9FBCD
:100BEC0000BF2037BD4680BD0038014000040048DE
:100BFC00A801002008000240480100201C0002400F
:100C0C0080B400AF00BFBD465DF8047B704780B474
:100C1C0000AFFEE780B400AFFEE780B400AFFEE7A4
:100C2C0080B400AFFEE780B400AF00BFBD465DF8F6
:100C3C00047B704780B400AF00BFBD465DF8047BF9
:100C4C00704780B400AF00BFBD465DF8047B7047B1
:100C5C0080B500AF00F07CFA00BF80BD80B500AF5E
:100C6C00024800F033FD00BF80BD00BFA80100208A
:100C7C0080B500AF024800F029FD00BF80BD00BF69
:100C8C004801002080B500AF024800F01FFD00BFF6
:100C9C0080BD00BF9402002080B500AF024800F078
:100CAC0015FD00BF80BD00BF9C00002080B500AFCB
:100CBC00024801F02DFA00BF80BD00BFFC000020EF
:100CCC0080B500AF024801F03DFA00BF80BD00BF07
:100CDC00FC00002080B500AF024804F01DFB00BFF3
:100CEC0080BD00BF0802002080B500AF00F0F0FF0F
:100CFC0000BF80BD80B586B000AFF860B9607A6087
:100D0C0000237B610AE0AFF300800146BB685A1CEC
:100D1C00BA60CAB21A707B6901337B617A697B68ED
:100D2C009A42F0DB7B6818461837BD4680BD80B50B
:100D3C0086B000AFF860B9607A6000237B6109E08F
:100D4C00BB685A1CBA601B781846FFF751FD7B69CB
:100D5C0001337B617A697B689A42F1DB7B681846C8
:100D6C001837BD4680BD80B483B000AF78604FF0BB
:100D7C00FF3318460C37BD465DF8047B704780B4D2
:100D8C0083B000AF786039603B684FF400525A6012
:100D9C00002318460C37BD465DF8047B704780B4C1
:100DAC0083B000AF7860012318460C37BD465DF860
:100DBC00047B704780B485B000AFF860B9607A608E
:100DCC00002318461437BD465DF8047B70470000BD
:100DDC0080B586B000AF7860144A154BD31A7B618E
:100DEC007B693B61134B1B68002B02D1114B124AE0
:100DFC001A60104B1A687B6813443A699A4207D2FE
:100E0C0005F024F902460C2313604FF0FF3309E080
:100E1C00084B1B68FB60074B1A687B681344054A38
:100E2C001360FB6818461837BD4680BD00000320D0
:100E3C000004000090000020C803002080B400AF24
:100E4C00264B00229A60254BD3F88830234A43F472
:100E5C007003C2F888304FF0B0431B684FF0B042BB
:100E6C0043F0010313604FF0B0434FF4E0229A605B
:100E7C004FF0B0431A684FF0B041194B13400B6060
:100E8C004FF0B043D3F894304FF0B04223F0050349
:100E9C00C2F894304FF0B043D3F898304FF0B042D2
:100EAC0023F00103C2F898304FF0B0430D4ADA60DA
:100EBC004FF0B0430B4A1A614FF0B0431B684FF030
:100ECC00B04223F4802313604FF0B04300229A61A8
:100EDC0000BFBD465DF8047B704700BF00ED00E02D
:100EEC00FBFEF6FA0010042280B487B000AF4FF07E
:100EFC00B0431B681B0903F00F03474A52F8233019
:100F0C003B614FF0B0439B6803F00C030C2B67D88C
:100F1C0001A252F823F000BF590F0008ED0F000892
:100F2C00ED0F0008ED0F0008610F0008ED0F000831
:100F3C00ED0F0008ED0F0008690F0008ED0F000819
:100F4C00ED0F0008ED0F0008710F0008334A3B69E4
:100F5C00136049E0314B324A1A6045E02F4B314A5D
:100F6C001A6041E04FF0B043DB6803F00303FB6011
:100F7C004FF0B043DB681B0903F007030133BB6080
:100F8C00FB68022B05D1264ABB68B2FBF3F37B61ED
:100F9C000DE0FB68032B05D1224ABB68B2FBF3F3CF
:100FAC007B6104E03A69BB68B2FBF3F37B614FF001
:100FBC00B043DB681B0A03F07F027B6902FB03F37F
:100FCC007B614FF0B043DB685B0F03F00703013329
:100FDC007B607A697B68B2FBF3F3104A136003E021
:100FEC000E4A3B69136000BF4FF0B0439B681B096E
:100FFC0003F00F030C4A52F823303B60074B1A687E
:10100C003B68B2FBF3F3054A136000BF1C37BD46C7
:10101C005DF8047B704700BF706A00080400002074
:10102C000024F4000048E801106A0008D458C450A9
:10103C000433C4188C42F9D37047036004308842DF
:10104C00FBD370470C488546FFF7F8FE0B480C495C
:10105C000C4A0023FFF7EDFF0B480C490023FFF768
:10106C00EEFF0B480B490023FFF7E9FF04F0F4FFF8
:10107C00FFF730FAFEE70000000003200400002018
:10108C00740000203C6B000874000020C403002096
:10109C000000032000000320FEE7000080B582B0B2
:1010AC0000AF0023FB710C4B1B680B4A43F480739D
:1010BC001360032000F048F9002000F00FF80346FD
:1010CC00002B02D00123FB7101E0FFF75AFCFB79E6
:1010DC0018460837BD4680BD0040005880B584B026
:1010EC0000AF78600023FB73174B1B78002B24D0C8
:1010FC0003F0F0FA0246144B1B7819464FF47A733E
:10110C00B3FBF1F3B2FBF3F3184600F050F90346CE
:10111C00002B0FD17B680F2B09D8002279684FF078
:10112C00FF3000F01CF9094A7B68136007E00123CB
:10113C00FB7304E00123FB7301E00123FB73FB7BD6
:10114C0018461037BD4680BD0C000020080000205A
:10115C0080B400AF064B1B781A46064B1B68134431
:10116C00044A136000BFBD465DF8047B704700BFA6
:10117C000C000020BC03002080B400AF034B1B68A4
:10118C001846BD465DF8047B704700BFBC030020C9
:10119C0080B400AF034B1B681846BD465DF8047B5A
:1011AC00704700BF0800002080B485B000AF7860A5
:1011BC007B6803F00703FB600C4BDB68BB60BA6811
:1011CC004FF6FF031340BB60FB681A02BB68134366
:1011DC0043F0BF6343F40033BB60044ABB68D36085
:1011EC0000BF1437BD465DF8047B704700ED00E08E
:1011FC0080B400AF044BDB681B0A03F007031846EE
:10120C00BD465DF8047B704700ED00E080B483B010
:10121C0000AF0346FB7197F90730002B0BDBFB7912
:10122C0003F01F02074997F907305B09012000FA08
:10123C0002F241F8232000BF0C37BD465DF8047B59
:10124C00704700BF00E100E080B483B000AF0346FC
:10125C003960FB7197F90730002B0ADB3B68DAB277
:10126C000C4997F907301201D2B20B4483F80023D2
:10127C000AE03B68DAB20849FB7903F00F03043B40
:10128C001201D2B20B441A7600BF0C37BD465DF882
:10129C00047B704700E100E000ED00E080B489B011
:1012AC0000AFF860B9607A60FB6803F00703FB617C
:1012BC00FB69C3F10703042B28BF0423BB61FB6943
:1012CC000433062B02D9FB69033B00E000237B614E
:1012DC004FF0FF32BB6902FA03F3DA43BB681A40E2
:1012EC007B699A404FF0FF317B6901FA03F3D943D4
:1012FC007B680B40134318462437BD465DF8047BCE
:10130C007047000080B582B000AF78607B68013B0D
:10131C00B3F1807F01D301230FE00A4A7B68013BC4
:10132C0053600F214FF0FF30FFF78EFF054B00226B
:10133C009A60044B07221A60002318460837BD46F2
:10134C0080BD00BF10E000E080B582B000AF7860D7
:10135C007868FFF729FF00BF0837BD4680BD80B510
:10136C0086B000AF0346B9607A60FB73FFF740FFAD
:10137C0078617A68B9687869FFF790FF024697F947
:10138C000F3011461846FFF75FFF00BF1837BD46F8
:10139C0080BD80B582B000AF0346FB7197F9073072
:1013AC001846FFF733FF00BF0837BD4680BD80B538
:1013BC0082B000AF78607868FFF7A4FF0346184648
:1013CC000837BD4680BD000080B584B000AF7860A2
:1013DC007B68002B01D101238EE07B681B681A46C9
:1013EC00474B9A420FD87B681B681A46454B1344EF
:1013FC00454AA2FB03231B099A007B685A647B684D
:10140C00424A1A640EE07B681B681A46404B134430
:10141C003D4AA2FB03231B099A007B685A647B6834
:10142C003C4A1A647B68022283F825207B681B687F
:10143C001B68FB60FB6823F4FF4323F07003FB6025
:10144C007B689A687B68DB681A437B681B691A4364
:10145C007B685B691A437B689B691A437B68DB6911
:10146C001A437B681B6A1343FA681343FB607B685F
:10147C001B68FA681A60786800F024FA7B689B682D
:10148C00B3F5804F02D17B6800225A607B685A68A2
:10149C007B689B6C02F03F021A607B68DB6C7A689D
:1014AC00126D5A607B685B68002B10D07B685B68A0
:1014BC00042B0CD8786800F043FA7B685B6D002233
:1014CC001A607B689B6D7A68D26D5A6008E07B6805
:1014DC0000225A657B6800229A657B680022DA65D7
:1014EC007B680022DA637B68012283F825207B6805
:1014FC00002283F82420002318461037BD4680BDF7
:10150C0007040240F8FFFDBFCDCCCCCC000002405C
:10151C00F8FBFDBF0004024080B586B000AFF86058
:10152C00B9607A603B600023FB75FB6893F824304C
:10153C00012B01D1022366E0FB68012283F82420F1
:10154C00FB6893F82530DBB2012B55D1FB680222E6
:10155C0083F82520FB680022DA63FB681B681A6895
:10156C00FB681B6822F001021A603B687A68B96854
:10157C00F86800F068F9FB681B6B002B08D0FB685F
:10158C001B681A68FB681B6842F00E021A600FE0B9
:10159C00FB681B681A68FB681B6822F004021A605F
:1015AC00FB681B681A68FB681B6842F00A021A6029
:1015BC00FB689B6C1B6803F48033002B07D0FB6823
:1015CC009B6C1A68FB689B6C42F480721A60FB6817
:1015DC005B6D002B07D0FB685B6D1A68FB685B6D5D
:1015EC0042F480721A60FB681B681A68FB681B68FF
:1015FC0042F001021A6005E0FB68002283F8242007
:10160C000223FB75FB7D18461837BD4680BD80B59F
:10161C0084B000AF78600023FB737B6893F82530AF
:10162C00DBB2022B05D07B680422DA630123FB7347
:10163C0047E07B681B681A687B681B6822F00E0207
:10164C001A607B681B681A687B681B6822F00102B1
:10165C001A607B689B6C1A687B689B6C22F48072A6
:10166C001A607B685B6C03F01C027B681B6C0121AD
:10167C0001FA02F25A607B68DB6C7A68126D5A6070
:10168C007B685B6D002B0CD07B685B6D1A687B688C
:10169C005B6D22F480721A607B689B6D7A68D26DE8
:1016AC005A607B68012283F825207B68002283F82E
:1016BC0024207B689B6B002B03D07B689B6B78682A
:1016CC009847FB7B18461037BD4680BD80B584B06B
:1016DC0000AF78607B681B6C1B68FB607B681B68C9
:1016EC001B68BB607B685B6C03F01C0304229A4094
:1016FC00FB681340002B26D0BB6803F00403002BBF
:10170C0021D07B681B681B6803F02003002B07D1DA
:10171C007B681B681A687B681B6822F004021A60DD
:10172C007B685B6C03F01C027B681B6C042101FA68
:10173C0002F25A607B681B6B002B71D07B681B6BB1
:10174C00786898476CE07B685B6C03F01C030222A2
:10175C009A40FB681340002B2ED0BB6803F00203A9
:10176C00002B29D07B681B681B6803F02003002B1F
:10177C000BD17B681B681A687B681B6822F00A0215
:10178C001A607B68012283F825207B685B6C03F070
:10179C001C027B681B6C022101FA02F25A607B6806
:1017AC00002283F824207B68DB6A002B38D07B680E
:1017BC00DB6A7868984733E07B685B6C03F01C034A
:1017CC0008229A40FB681340002B2AD0BB6803F018
:1017DC000803002B25D07B681B681A687B681B6884
:1017EC0022F00E021A607B685B6C03F01C027B68B3
:1017FC001B6C012101FA02F25A607B680122DA6348
:10180C007B68012283F825207B68002283F8242042
:10181C007B685B6B002B04D07B685B6B78689847AC
:10182C0000BF00BF1037BD4680BD80B483B000AF91
:10183C0078607B6893F82530DBB218460C37BD46D0
:10184C005DF8047B704780B485B000AFF860B96078
:10185C007A603B60FB68DB6CFA68126D5A60FB685F
:10186C005B6D002B04D0FB689B6DFA68D26D5A60DF
:10187C00FB685B6C03F01C02FB681B6C012101FA1A
:10188C0002F25A60FB681B683A685A60FB689B68F6
:10189C00102B08D1FB681B687A689A60FB681B6880
:1018AC00BA68DA6007E0FB681B68BA689A60FB6884
:1018BC001B687A68DA6000BF1437BD465DF8047B9C
:1018CC007047000080B485B000AF78607B681B68FF
:1018DC001A46174B9A420AD87B685B6C9B089B0094
:1018EC0003F1804303F502337A68936407E07B6865
:1018FC005B6C9B089A000F4B13447A6893647B686B
:10190C001B68DBB2083B0C4AA2FB03231B09FB60E0
:10191C007B680A4ADA64FB6803F01F0301229A40D1
:10192C007B681A6500BF1437BD465DF8047B7047B1
:10193C00070402401C080240CDCCCCCC80080240ED
:10194C0080B485B000AF78607B685B6803F03F03C0
:10195C00FB60FA680B4B13449B001A467B685A6574
:10196C007B68094A9A65FB68013B03F0030301227B
:10197C009A407B68DA6500BF1437BD465DF8047B7E
:10198C00704700BF3F8200104009024080B487B00E
:10199C0000AF7860396000237B614CE13B681A68CA
:1019AC0001217B6901FA03F31340FB60FB68002BF8
:1019BC0000F03E813B685B68012B0BD03B685B6899
:1019CC00022B07D03B685B68112B03D03B685B682C
:1019DC00122B30D17B689B683B617B695B000322D7
:1019EC0002FA03F3DB433A6913403B613B68DA6864
:1019FC007B695B0002FA03F33A6913433B617B6832
:101A0C003A699A607B685B683B6101227B6902FAE8
:101A1C0003F3DB433A6913403B613B685B681B098A
:101A2C0003F001027B6902FA03F33A6913433B6149
:101A3C007B683A695A607B68DB683B617B695B0059
:101A4C00032202FA03F3DB433A6913403B613B6820
:101A5C009A687B695B0002FA03F33A6913433B61B2
:101A6C007B683A69DA603B685B68022B03D03B68A1
:101A7C005B68122B23D17B69DA087B68083253F838
:101A8C0022303B617B6903F007039B000F2202FAB3
:101A9C0003F3DB433A6913403B613B681A697B698A
:101AAC0003F007039B0002FA03F33A6913433B610B
:101ABC007B69DA087B680832396943F822107B6845
:101ACC001B683B617B695B00032202FA03F3DB4377
:101ADC003A6913403B613B685B6803F003027B6926
:101AEC005B0002FA03F33A6913433B617B683A6982
:101AFC001A603B685B6803F08053002B00F0988001
:101B0C00544A7B699B08023352F823303B617B6952
:101B1C0003F003039B000F2202FA03F3DB433A6941
:101B2C0013403B617B68B3F1904F19D07B684A4AF4
:101B3C00934213D07B68494A93420DD07B68484A44
:101B4C00934207D07B68474A934201D1042308E0B3
:101B5C00072306E0032304E0022302E0012300E054
:101B6C0000237A6902F00302920093403A6913430E
:101B7C003B6138497B699B0802333A6941F8232061
:101B8C00394BD3F880303B61FB68DB433A69134037
:101B9C003B613B685B6803F48033002B03D03A69EC
:101BAC00FB6813433B61304A3B69C2F880302E4BD3
:101BBC00D3F884303B61FB68DB433A6913403B61EB
:101BCC003B685B6803F40033002B03D03A69FB6875
:101BDC0013433B61244A3B69C2F88430224B1B6897
:101BEC003B61FB68DB433A6913403B613B685B68D4
:101BFC0003F48013002B03D03A69FB6813433B6159
:101C0C00194A3B691360184B5B683B61FB68DB430B
:101C1C003A6913403B613B685B6803F40013002B8B
:101C2C0003D03A69FB6813433B610F4A3B6953602D
:101C3C007B6901337B613B681A687B6922FA03F389
:101C4C00002B7FF4ABAE00BF1C37BD465DF8047BA8
:101C5C00704700BF00000140000400480008004825
:101C6C00000C0048001000480008005880B483B0F5
:101C7C0000AF78600B467B8013467B707B78002B23
:101C8C0003D07A887B689A6102E07A887B689A62D2
:101C9C0000BF0C37BD465DF8047B704780B485B03F
:101CAC0000AF78600B467B807B685B69FB607A8851
:101CBC00FB6813401A04FB68D9437B880B401A431A
:101CCC007B689A6100BF1437BD465DF8047B704792
:101CDC0080B582B000AF0A4BDB687B60084B1A689A
:101CEC007B68DB43064913400B60054A7B685360F5
:101CFC00786800F007F800BF0837BD4680BD00BF0C
:101D0C000015005880B483B000AF786000BF0C376A
:101D1C00BD465DF8047B704780B582B000AF78603B
:101D2C007B68002B01D1012381E07B6893F8413063
:101D3C00DBB2002B06D17B68002283F84020786848
:101D4C00FEF730FE7B68242283F841207B681B68F9
:101D5C001A687B681B6822F001021A607B685A685B
:101D6C007B681B6822F070621A617B681B689A683A
:101D7C007B681B6822F400429A607B68DB68012B4D
:101D8C0007D17B689A687B681B6842F400429A60B2
:101D9C0006E07B689A687B681B6842F404429A6090
:101DAC007B68DB68022B04D17B681B684FF40062F4
:101DBC005A607B681B685B687A68126843F0007332
:101DCC0043F4004353607B681B68DA687B681B68CC
:101DDC0022F40042DA607B681A697B685B6942EA2C
:101DEC0003017B689B691A027B681B680A43DA60F3
:101DFC007B68D9697B681A6A7B681B680A431A601E
:101E0C007B681B681A687B681B6842F001021A60C9
:101E1C007B6800225A647B68202283F841207B680F
:101E2C0000221A637B68002283F8422000231846A4
:101E3C000837BD4680BD000080B586B000AFF860A5
:101E4C00B9601346FB80FB6893F84130DBB2202B62
:101E5C0040F09B80BB68002B02D0FB88002B05D187
:101E6C00FB684FF400725A6401238FE0FB6893F80F
:101E7C004030012B01D1022388E0FB68012283F85A
:101E8C004020FB68212283F84120FB68202283F844
:101E9C004220FB6800225A64FB68BA685A62FB68ED
:101EAC00FA885A85FB685B8D9AB2FB681A85FB68C9
:101EBC00384ADA62FB68384A5A63FB689B6B002B22
:101ECC0020D0FB689B6B354ADA62FB689B6B344A0B
:101EDC005A63FB689B6B00221A63FB689B6B0022A6
:101EEC009A63FB68986BB968FB681B6828331A46C1
:101EFC00FB681B8DFFF710FB0346FB75FB7D002B6E
:101F0C002FD113E0FB68282283F84120FB680022C4
:101F1C0083F84220FB685B6C43F08002FB685A64D8
:101F2C00FB68002283F8402001232FE0FB681B682C
:101F3C005A68FB681B6822F400425A60FB68002256
:101F4C0083F840204FF40041F86801F07DF9FB68FC
:101F5C001B681A68FB681B6842F480421A600023F5
:101F6C0014E0FB68282283F84120FB68002283F8E8
:101F7C004220FB685B6C43F01002FB685A64FB6800
:101F8C00002283F84020012300E002231846183772
:101F9C00BD4680BD0000FFFF7F260008073100080A
:101FAC008D31000880B586B000AFF860B96013467B
:101FBC00FB80FB6893F84130DBB2202B40F09B8018
:101FCC00BB68002B02D0FB88002B05D1FB684FF4BB
:101FDC0000725A6401238FE0FB6893F84030012BA8
:101FEC0001D1022388E0FB68012283F84020FB68C2
:101FFC00222283F84120FB68202283F84220FB68D0
:10200C0000225A64FB68BA685A62FB68FA885A85DF
:10201C00FB685B8D9AB2FB681A85FB68384ADA62FA
:10202C00FB68384A5A63FB68DB6B002B20D0FB68DB
:10203C00DB6B354ADA62FB68DB6B344A5A63FB684C
:10204C00DB6B00221A63FB68DB6B00229A63FB6874
:10205C00D86BFB681B6824331946BA68FB681B8D68
:10206C00FFF75AFA0346FB75FB7D002B2FD113E0CB
:10207C00FB68282283F84120FB68002283F8422069
:10208C00FB685B6C43F08002FB685A64FB680022BF
:10209C0083F8402001232FE0FB681B685A68FB681B
:1020AC001B6822F400425A60FB68002283F840202F
:1020BC004FF40041F86801F0C7F8FB681B681A6818
:1020CC00FB681B6842F400421A60002314E0FB68B2
:1020DC00282283F84120FB68002283F84220FB6809
:1020EC005B6C43F01002FB685A64FB68002283F8B7
:1020FC004020012300E0022318461837BD4680BD5E
:10210C000000FFFF7F260008473100088D310008D2
:10211C0080B584B000AF78607B681B689B69FB60FE
:10212C007B681B681B68BB607B685B6B002B05D0F6
:10213C007B685B6BBA68F9687868984700BF1037A2
:10214C00BD4680BD80B586B000AF78607B681B68EB
:10215C009B697B617B681B681B683B617B691B0A05
:10216C0003F00103002B10D03B69DB0903F00103E2
:10217C00002B0AD07B685B6C43F001027B685A64CD
:10218C007B681B684FF48072DA617B699B0A03F0F1
:10219C000103002B10D03B69DB0903F00103002B7A
:1021AC000AD07B685B6C43F008027B685A647B68DE
:1021BC001B684FF48062DA617B695B0A03F00103F0
:1021CC00002B10D03B69DB0903F00103002B0AD074
:1021DC007B685B6C43F002027B685A647B681B680B
:1021EC004FF40072DA617B685B6CFB60FB6803F098
:1021FC000B03002B03D0F968786800F063FE00BF76
:10220C001837BD4680BD80B483B000AF78600B46F4
:10221C00FB7013463B8000BF0C37BD465DF8047B5A
:10222C00704780B483B000AF786000BF0C37BD46F8
:10223C005DF8047B704780B483B000AF786000BF5A
:10224C000C37BD465DF8047B704780B483B000AF9B
:10225C00786000BF0C37BD465DF8047B704780B4D6
:10226C0083B000AF786000BF0C37BD465DF8047BCF
:10227C00704780B483B000AF786000BF0C37BD46A8
:10228C005DF8047B704780B586B000AFF860B9602C
:10229C007A60FB68DB6A7B61BB683B61FB6893F827
:1022AC004030012B01D10223ECE0FB68012283F8C2
:1022BC0040203B695B0903F00103002B09D07B68CC
:1022CC005B0903F00103002B03D03969F86800F0B7
:1022DC0099FC3B691B0903F00103002B4DD07B6873
:1022EC001B0903F00103002B47D0FB685B8D9BB2ED
:1022FC00002B28D1FB6893F84130DBB2282B08D196
:10230C007B69B3F1007F04D13969F86800F084FD72
:10231C0032E0FB6893F84130DBB2292B0ED17B699C
:10232C0013F5803F0AD0FB681B681022DA61F8684D
:10233C0000F0BFFEF86800F03DFB1DE0FB681B6879
:10234C001022DA6196E0FB681B681022DA61FB68E8
:10235C005B6C43F00402FB685A647B69002B04D06D
:10236C007B69B3F1807F40F08580FB685B6C19461C
:10237C00F86800F0A7FD7DE07CE03B699B0803F06A
:10238C000103002B30D07B689B0803F00103002B6A
:10239C002AD0FB685B8D9BB2002B18D0FB681B68A6
:1023AC005A6AFB685B6AD2B21A70FB685B6A5A1C89
:1023BC00FB685A62FB681B8D013B9AB2FB681A855D
:1023CC00FB685B8D9BB2013B9AB2FB685A85FB683C
:1023DC005B8D9BB2002B4FD17B6913F5803F4BD0AB
:1023EC00F86800F0E7FA47E03B69DB0803F001030B
:1023FC00002B0AD07B68DB0803F00103002B04D010
:10240C003969F86800F015FA37E03B695B0803F0AE
:10241C000103002B31D07B685B0803F00103002B18
:10242C002BD0FB685B8D9BB2002B18D0FB685B6AD2
:10243C001A78FB681B689A62FB685B6A5A1CFB681B
:10244C005A62FB685B8D9BB2013B9AB2FB685A8562
:10245C00FB681B8D013B9AB2FB681A850DE07B690A
:10246C00B3F1807F02D07B69002B06D1F86800F0B5
:10247C00A1FA02E000BF00E000BFFB68002283F875
:10248C004020002318461837BD4680BD80B588B063
:10249C0002AFF860B9607A60FB6893F84030012BAA
:1024AC0001D10223E1E0FB68012283F84020BB68E4
:1024BC001B0903F00103002B17D07B681B0903F0E9
:1024CC000103002B11D0FB681B681022DA61FB683A
:1024DC005B6C43F00402FB685A642021F86800F03E
:1024EC00B3FEF86800F0E5FDBAE0BB68DB0903F069
:1024FC000103002B72D07B689B0903F00103002BB6
:10250C006CD0FB681B681A68FB681B6822F04002E1
:10251C001A60FB685B8D9BB2002B4ED0FB681B686E
:10252C005B689BB2C3F309037B82FB685B8D9BB238
:10253C00FF2B06D9FB68FF221A854FF080737B6155
:10254C0010E0FB685B8D9AB2FB681A85FB68DB6A4E
:10255C0013F5803F03D0FB68DB6A7B6102E04FF030
:10256C0000737B61FB681B8DDAB2798A00230093C0
:10257C007B69F86800F03AFEFB685B8D9AB2FB68E9
:10258C001B8DD31A9AB2FB685A85FB6893F84130BD
:10259C00DBB2222B08D1FB681B681A68FB681B682E
:1025AC0042F400421A605BE0FB681B681A68FB6827
:1025BC001B6842F480421A6052E0FB681B685B683F
:1025CC0003F00073B3F1007F03D0F86800F0B5F9A5
:1025DC0046E04021F86800F075FC41E0BB689B09BF
:1025EC0003F00103002B29D07B689B0903F0010346
:1025FC00002B23D0FB685B8D9BB2002B19D1FB68A1
:10260C001B685B6803F00073B3F1007F27D0FB6895
:10261C00DB6A13F5803F08D1FB681B685A68FB68BE
:10262C001B6842F480425A6019E0F86800F085F9A2
:10263C0015E04021F86800F045FC10E0BB685B0930
:10264C0003F00103002B0BD07B685B0903F0010343
:10265C00002B05D0B968F86800F00AFA00E000BF5A
:10266C00FB68002283F84020002318461837BD462B
:10267C0080BD80B588B000AFF860B9607A60FB6847
:10268C00DB6ABB610023FB61FB6893F84030012BD4
:10269C0001D10223C9E0FB68012283F84020BB680A
:1026AC005B0903F00103002B09D07B685B0903F085
:1026BC000103002B03D0B968F86800F0A3FABB68DB
:1026CC001B0903F00103002B00F09A807B681B09A7
:1026DC0003F00103002B00F093807B689B0B03F04D
:1026EC000103002B05D17B68DB0B03F00103002BEE
:1026FC007FD0FB68DB6B002B0DD07B68DB0B03F012
:10270C000103002B07D0FB68DB6B1B685B68002B9D
:10271C0001D10123FB61FB689B6B002B0DD07B6807
:10272C009B0B03F00103002B07D0FB689B6B1B6812
:10273C005B68002B01D10123FB61FB69012B28D1C4
:10274C00FB6893F84130DBB2282B08D1BB69B3F19D
:10275C00007F04D1B968F86800F05EFB48E0FB68C4
:10276C0093F84130DBB2292B0ED1BB6913F5803FB6
:10277C000AD0FB681B681022DA61F86800F099FC3B
:10278C00F86800F017F933E0FB681B681022DA6177
:10279C0034E0FB681B681022DA61FB685B6C43F069
:1027AC000402FB685A64FB6893F84130FB75BB6903
:1027BC00002B03D0BB69B3F1807F1FD1FB7D212B94
:1027CC0002D0FB7D292B03D1FB6821221A6308E080
:1027DC00FB7D222B02D0FB7D2A2B02D1FB6822220F
:1027EC001A63FB685B6C1946F86800F06BFB05E03C
:1027FC0004E0FB681B681022DA6111E000BF0FE0F7
:10280C00BB68DB0803F00103002B09D07B68DB08F5
:10281C0003F00103002B03D0B968F86800F009F845
:10282C00FB68002283F84020002318462037BD4661
:10283C0080BD80B584B000AF786039607B6893F858
:10284C004130DBB203F02803282B6AD17B681B686C
:10285C009B691B0CDBB203F00103FB737B681B68E9
:10286C009B691B0C9BB203F0FE03BB817B681B684E
:10287C009B689BB2C3F309037B817B681B68DB6895
:10288C009BB203F0FE033B817B68DB68022B38D1E3
:10289C007B89DB099AB2BB8953409BB203F00603D8
:1028AC00002B1CD17B89BB817B689B6C5A1C7B6881
:1028BC009A647B689B6C022B3BD17B6800229A64E8
:1028CC007B681B680822DA617B68002283F8402051
:1028DC00BA89FB7B19467868FFF795FC29E03B89A0
:1028EC00BB814FF40041786800F012FD7B68002238
:1028FC0083F84020BA89FB7B19467868FFF783FC84
:10290C0017E04FF40041786800F002FD7B6800226C
:10291C0083F84020BA89FB7B19467868FFF773FC73
:10292C0007E07B681B680822DA617B68002283F869
:10293C00402000BF1037BD4680BD80B582B000AFCF
:10294C0078607B68002283F842207B6893F84130E2
:10295C00DBB2212B15D17B68202283F841207B68C8
:10296C0011221A637B6800225A630121786800F0F7
:10297C00CFFC7B68002283F840207868FDF74AFF83
:10298C0014E07B68202283F841207B6812221A63B2
:10299C007B6800225A630221786800F0B9FC7B68DE
:1029AC00002283F840207868FDF73EFF00BF08370F
:1029BC00BD4680BD80B584B000AF78607B681B6875
:1029CC001B68FB607B68002283F84220FB689B0B32
:1029DC0003F00103002B08D07B681B681A687B6826
:1029EC001B6822F480421A600DE0FB68DB0B03F0DD
:1029FC000103002B07D07B681B681A687B681B6877
:102A0C0022F400421A607B6893F84130DBB2292B28
:102A1C0012D17B68282283F841207B6821221A631B
:102A2C000121786800F074FC7B68002283F8402058
:102A3C007868FDF703FF17E07B6893F84130DBB251
:102A4C002A2B11D17B68282283F841207B68222213
:102A5C001A630221786800F05BFC7B68002283F823
:102A6C0040207868FDF706FF00BF1037BD4680BDDB
:102A7C0080B586B000AF786039603B687B617B685D
:102A8C001B682022DA617B6893F84130DBB2212B82
:102A9C0007D10121786800F03BFC7B6811221A6396
:102AAC000CE07B6893F84130DBB2222B06D102217B
:102ABC00786800F02DFC7B6812221A637B681B6817
:102ACC0059687B681A684D4B0B4053607B68002239
:102ADC005A637B684A4ADA627B691B0903F001037B
:102AEC00002B09D07B681B681022DA617B685B6C59
:102AFC0043F004027B685A647B6893F84130DBB284
:102B0C00602B0BD17B699B0803F00103002B05D0D4
:102B1C007B681B685B6ADBB2FB60FB68786800F063
:102B2C00C8FA7B685B6C3B617B6893F84130DBB225
:102B3C00602B02D03B69002B06D07B685B6C19467E
:102B4C00786800F0BFF954E07B6893F84130DBB251
:102B5C00212B24D17B68202283F841207B68002222
:102B6C001A637B6893F84230DBB2402B0BD17B6845
:102B7C00002283F842207B68002283F8402078688A
:102B8C00FFF759FB35E07B68002283F842207B6815
:102B9C00002283F840207868FDF73CFE29E07B6832
:102BAC0093F84130DBB2222B23D17B68202283F8AF
:102BBC0041207B6800221A637B6893F84230DBB2B9
:102BCC00402B0BD17B68002283F842207B680022CB
:102BDC0083F840207868FFF738FB0AE07B68002216
:102BEC0083F842207B68002283F840207868FDF748
:102BFC001BFE00BF1837BD4680BD00BF00E800FEBD
:102C0C000000FFFF80B586B000AF786039607B684C
:102C1C001B681B683B613B687B617B6893F84130A8
:102C2C00FB737B681B682022DA61FB7B212B02D0B3
:102C3C00FB7B292B08D148F20101786800F068FB76
:102C4C007B6821221A630DE0FB7B222B02D0FB7BDD
:102C5C002A2B07D148F20201786800F059FB7B68F7
:102C6C0022221A637B681B685A687B681B6842F4D3
:102C7C0000425A607B681B6859687B681A68644B11
:102C8C000B405360786800F014FA3B699B0B03F01F
:102C9C000103002B13D07B681B681A687B681B68C8
:102CAC0022F480421A607B689B6B002B20D07B68DF
:102CBC009B6B1B685B689AB27B685A8518E03B6912
:102CCC00DB0B03F00103002B12D07B681B681A6826
:102CDC007B681B6822F400421A607B68DB6B002B5C
:102CEC0006D07B68DB6B1B685B689AB27B685A8585
:102CFC007B699B0803F00103002B20D07B6923F038
:102D0C0004037B617B681B685A6A7B685B6AD2B27E
:102D1C001A707B685B6A5A1C7B685A627B681B8DD5
:102D2C00002B0CD07B681B8D013B9AB27B681A85FB
:102D3C007B685B8D9BB2013B9AB27B685A857B6842
:102D4C005B8D9BB2002B05D07B685B6C43F004025F
:102D5C007B685A647B68002283F842207B680022DF
:102D6C005A637B685B6C002B10D07B685B6C1946DC
:102D7C00786800F0A7F87B6893F84130DBB2282B19
:102D8C0041D17969786800F047F83CE07B68DB6AF0
:102D9C0013F5803F14D07868FFF70CFE7B681D4A52
:102DAC00DA627B68202283F841207B6800221A6358
:102DBC007B68002283F840207868FFF732FA22E023
:102DCC007B6893F84130DBB2222B0ED17B6820223A
:102DDC0083F841207B6800221A637B68002283F809
:102DEC0040207868FDF746FD0DE07B68202283F8D3
:102DFC0041207B6800221A637B68002283F8402004
:102E0C007868FDF71BFD00BF1837BD4680BD00BFBD
:102E1C0000E800FE0000FFFF80B582B000AF7860D4
:102E2C0039607B68264ADA627B6800221A637B6809
:102E3C00202283F841207B68002283F842207B68A3
:102E4C0000225A633B689B0803F00103002B22D03D
:102E5C007B681B685A6A7B685B6AD2B21A707B68A3
:102E6C005B6A5A1C7B685A627B681B8D002B12D0E4
:102E7C007B681B8D013B9AB27B681A857B685B8DE6
:102E8C009BB2013B9AB27B685A857B685B6C43F0C2
:102E9C0004027B685A6448F20301786800F038FA3F
:102EAC007B681B681022DA617B68002283F8402063
:102EBC007868FFF7B6F900BF0837BD4680BD00BF84
:102ECC000000FFFF80B584B000AF786039607B688C
:102EDC0093F84130FB737B68002283F842207B68B7
:102EEC005D4ADA627B6800225A857B685A6C3B68C3
:102EFC001A437B685A64FB7B282B05D0FB7B292B60
:102F0C0002D0FB7B2A2B0BD10321786800F000FA4E
:102F1C007B68282283F841207B68504A5A6311E071
:102F2C0048F20301786800F0F3F97B6893F84130BC
:102F3C00DBB2602B03D07B68202283F841207B68B6
:102F4C0000225A637B681B6BBB607B689B6B002BFE
:102F5C0039D0BB68112B02D0BB68212B33D17B68D5
:102F6C001B681B6803F48043B3F5804F07D17B6863
:102F7C001B681A687B681B6822F480421A607B68A5
:102F8C009B6B1846FEF751FC0346012B17D07B6850
:102F9C009B6B334A9A637B68002283F840207B68E2
:102FAC009B6B1846FEF733FB0346002B4DD07B681A
:102FBC009B6B9B6B7A68926B1046984745E07868E0
:102FCC0000F050F841E07B68DB6B002B39D0BB681C
:102FDC00122B02D0BB68222B33D17B681B681B6879
:102FEC0003F40043B3F5004F07D17B681B681A68E4
:102FFC007B681B6822F400421A607B68DB6B184606
:10300C00FEF713FC0346012B17D07B68DB6B144ACD
:10301C009A637B68002283F840207B68DB6B184640
:10302C00FEF7F5FA0346002B11D07B68DB6B9B6B2C
:10303C007A68D26B1046984709E0786800F012F86D
:10304C0005E0786800F00EF802E000BF00E000BF79
:10305C0000BF1037BD4680BD0000FFFF9322000863
:10306C00BB31000880B582B000AF78607B6893F804
:10307C004130DBB2602B0ED17B68202283F84120DB
:10308C007B6800221A637B68002283F840207868F2
:10309C00FFF7EFF809E07B6800221A637B680022D7
:1030AC0083F840207868FFF7DAF800BF0837BD4690
:1030BC0080BD80B483B000AF78607B681B689B696F
:1030CC0003F00203022B03D17B681B6800229A6277
:1030DC007B681B689B6903F00103012B07D07B689D
:1030EC001B689A697B681B6842F001029A6100BFF9
:1030FC000C37BD465DF8047B704780B584B000AFDB
:10310C0078607B689B6AFB60FB68DB6ABB60BB68B2
:10311C00B3F1807F02D0BB68002B0AD1FB681B681F
:10312C001A68FB681B6822F480421A60F868FFF783
:10313C0041FC00BF1037BD4680BD80B584B000AFE8
:10314C0078607B689B6AFB60FB68DB6ABB60FB6832
:10315C00DB6B1B685B68002B0ED1BB6813F5803FE3
:10316C000AD0FB681B681A68FB681B6822F40042D3
:10317C001A60F868FFF71EFC00BF1037BD4680BD13
:10318C0080B584B000AF78607B689B6AFB60FB689D
:10319C001B685A68FB681B6842F400425A60102195
:1031AC00F868FFF78FFE00BF1037BD4680BD80B5B5
:1031BC0084B000AF78607B689B6AFB60FB689B6B9C
:1031CC00002B03D0FB689B6B00229A63FB68DB6BC4
:1031DC00002B03D0FB68DB6B00229A63F868FFF7C7
:1031EC0041FF00BF1037BD4680BD000080B485B0E4
:1031FC0000AFF8607B600B467B8113467B72FB68EB
:10320C001B685A68BB695B0D03F480610D4B0B4363
:10321C00DB4302EA03017B89C3F309027B7A1B04BB
:10322C0003F47F031A437B681A43BB691A43FB6898
:10323C001B680A435A6000BF1437BD465DF8047B17
:10324C00704700BFFF63FF0380B485B000AF7860A8
:10325C000B467B800023FB607B685B6B2A4A9342A6
:10326C0004D07B685B6B294A93421DD1B7F90230BD
:10327C00002B03DAFB6843F0B803FB607B88102B50
:10328C0003D1FB6843F09003FB607B88202B03D1B8
:10329C00FB6843F06003FB607B88402B25D1FB6807
:1032AC0043F04003FB6020E0B7F90230002B03DA57
:1032BC00FB6843F0B803FB607B8803F00103002B31
:1032CC0003D0FB6843F0F203FB607B8803F002033E
:1032DC00002B03D0FB6843F0F403FB607B88202BAE
:1032EC0003D1FB6843F02003FB607B681B68196803
:1032FC007B681B68FA680A431A6000BF1437BD4626
:10330C005DF8047B704700BF992400087F260008F5
:10331C0080B485B000AF78600B467B800023FB60E7
:10332C007B8803F00103002B0FD0FB6843F04203B2
:10333C00FB607B6893F84130DBB203F02803282B49
:10334C0003D0FB6843F0B003FB607B8803F00203FF
:10335C00002B0FD0FB6843F04403FB607B6893F8B1
:10336C004130DBB203F02803282B03D0FB6843F079
:10337C00B003FB60B7F90230002B03DAFB6843F0B3
:10338C00B803FB607B88102B03D1FB6843F09003E0
:10339C00FB607B88202B03D1FB6843F02003FB6090
:1033AC007B88402B03D1FB6843F04003FB607B68B8
:1033BC001B681968FB68DA437B681B680A401A6053
:1033CC0000BF1437BD465DF8047B704780B483B0F2
:1033DC0000AF786039607B6893F84130DBB2202B0A
:1033EC0038D17B6893F84030012B01D1022332E0B5
:1033FC007B68012283F840207B68242283F84120DB
:10340C007B681B681A687B681B6822F001021A60D3
:10341C007B681B681A687B681B6822F480521A60F0
:10342C007B681B6819687B681B683A680A431A60DA
:10343C007B681B681A687B681B6842F001021A6083
:10344C007B68202283F841207B68002283F840208F
:10345C00002300E0022318460C37BD465DF8047BC0
:10346C00704780B485B000AF786039607B6893F8A2
:10347C004130DBB2202B39D17B6893F84030012BE3
:10348C0001D1022333E07B68012283F840207B6862
:10349C00242283F841207B681B681A687B681B68B0
:1034AC0022F001021A607B681B681B68FB60FB68DA
:1034BC0023F47063FB603B681B02FA681343FB60E8
:1034CC007B681B68FA681A607B681B681A687B68E3
:1034DC001B6842F001021A607B68202283F84120AD
:1034EC007B68002283F84020002300E0022318466A
:1034FC001437BD465DF8047B7047000080B400AF04
:10350C00054B1B68044A43F48073136000BFBD462F
:10351C005DF8047B704700BF0004005880B400AF16
:10352C00044B1B6803F4C0631846BD465DF8047B6E
:10353C00704700BF0004005880B400AF4FF0B04398
:10354C001B6803F48013B3F5801F01D1012300E045
:10355C0000231846BD465DF8047B704780B400AF6D
:10356C004FF0B0431B684FF0B04243F4802313601C
:10357C0000BFBD465DF8047B704780B400AF4FF0D0
:10358C00B0431B684FF0B04223F48023136000BF9C
:10359C00BD465DF8047B704780B400AF4FF0B0437C
:1035AC001B684FF0B04243F48033136000BFBD463C
:1035BC005DF8047B704780B400AF4FF0B0431B68DC
:1035CC004FF0B04223F48033136000BFBD465DF86A
:1035DC00047B704780B400AF4FF0B0431B6803F41A
:1035EC000033B3F5003F01D1012300E0002318465E
:1035FC00BD465DF8047B704780B400AF4FF0B0431C
:10360C001B684FF0B04243F48073136000BFBD469B
:10361C005DF8047B704780B400AF4FF0B0431B687B
:10362C004FF0B04223F48073136000BFBD465DF8C9
:10363C00047B704780B400AF4FF0B0431B6803F4B9
:10364C008063B3F5806F01D1012300E0002318469D
:10365C00BD465DF8047B704780B483B000AF7860E2
:10366C004FF0B0435B6823F0FE427B681B064FF0C3
:10367C00B04113434B6000BF0C37BD465DF8047B73
:10368C00704780B400AF4FF0B043D3F898304FF090
:10369C00B04243F00103C2F8983000BFBD465DF85C
:1036AC00047B704780B400AF4FF0B043D3F8983030
:1036BC004FF0B04223F00103C2F8983000BFBD4672
:1036CC005DF8047B704780B400AF4FF0B043D3F883
:1036DC00983003F00203022B01D1012300E00023F8
:1036EC001846BD465DF8047B704780B400AF4FF0C0
:1036FC00B043D3F890304FF0B04243F00103C2F81E
:10370C00903000BFBD465DF8047B704780B400AFBD
:10371C004FF0B043D3F890304FF0B04223F0010398
:10372C00C2F8903000BFBD465DF8047B704780B492
:10373C0000AF4FF0B043D3F890304FF0B04243F0AD
:10374C000403C2F8903000BFBD465DF8047B70479F
:10375C0080B400AF4FF0B043D3F890304FF0B0428C
:10376C0023F00403C2F8903000BFBD465DF8047B23
:10377C00704780B400AF4FF0B043D3F8903003F0F3
:10378C000203022B01D1012300E000231846BD46A1
:10379C005DF8047B704780B400AF4FF0B043D3F8B2
:1037AC0094304FF0B04243F00103C2F8943000BFA4
:1037BC00BD465DF8047B704780B400AF4FF0B0435A
:1037CC00D3F894304FF0B04223F00103C2F8943098
:1037DC0000BFBD465DF8047B704780B400AF4FF06E
:1037EC00B043D3F8943003F00203022B01D1012330
:1037FC0000E000231846BD465DF8047B704780B49A
:10380C0000AF4FF0B043D3F894304FF0B04243F0D8
:10381C000403C2F8943000BFBD465DF8047B7047CA
:10382C0080B400AF4FF0B043D3F894304FF0B042B7
:10383C0023F00403C2F8943000BFBD465DF8047B4E
:10384C00704780B400AF4FF0B043D3F8943003F01E
:10385C000803082B01D1012300E000231846BD46C4
:10386C005DF8047B704780B483B000AF78604FF094
:10387C00B043D3F8943023F470627B681B024FF092
:10388C00B0411343C1F8943000BF0C37BD465DF80E
:10389C00047B704780B400AF4FF0B0431B684FF00F
:1038AC00B04243F00103136000BFBD465DF8047BDA
:1038BC00704780B400AF4FF0B0431B684FF0B0427C
:1038CC0023F00103136000BFBD465DF8047B704715
:1038DC0080B400AF4FF0B0431B6803F00203022B1F
:1038EC0001D1012300E000231846BD465DF8047B9E
:1038FC00704780B483B000AF78604FF0B0431B6862
:10390C0023F0F0024FF0B0417B6813430B6000BF13
:10391C000C37BD465DF8047B704780B483B000AFB4
:10392C004FF0B0431B6803F0F0037B607B68B02B57
:10393C0001D9B0237B607B6818460C37BD465DF817
:10394C00047B704780B483B000AF78604FF0B04315
:10395C005B6823F47F427B681B024FF0B04113433A
:10396C004B6000BF0C37BD465DF8047B704780B4DC
:10397C0083B000AF78604FF0B0439B6823F0030234
:10398C004FF0B0417B6813438B6000BF0C37BD46D2
:10399C005DF8047B704780B400AF4FF0B0439B6878
:1039AC0003F00C031846BD465DF8047B704780B4E9
:1039BC0083B000AF78604FF0B0439B6823F0F00207
:1039CC004FF0B0417B6813438B6000BF0C37BD4692
:1039DC005DF8047B704780B483B000AF78604FF023
:1039EC00B043D3F8083123F0F0024FF0B0417B68BC
:1039FC001343C1F8083100BF0C37BD465DF8047B9A
:103A0C00704780B483B000AF78604FF0B043D3F808
:103A1C00083123F00F027B681B094FF0B0411343B0
:103A2C00C1F8083100BF0C37BD465DF8047B704708
:103A3C0080B483B000AF78604FF0B0439B6823F440
:103A4C00E0624FF0B0417B6813438B6000BF0C37D2
:103A5C00BD465DF8047B704780B483B000AF7860DE
:103A6C004FF0B0439B6823F460524FF0B0417B6839
:103A7C0013438B6000BF0C37BD465DF8047B704769
:103A8C0080B400AF4FF0B0439B6803F0F0031846CE
:103A9C00BD465DF8047B704780B400AF4FF0B04377
:103AAC00D3F808311B0103F0F0031846BD465DF84E
:103ABC00047B704780B400AF4FF0B0439B6803F4B5
:103ACC00E0631846BD465DF8047B704780B400AFD8
:103ADC004FF0B0439B6803F460531846BD465DF845
:103AEC00047B704780B400AF4FF0B0431B684FF0BD
:103AFC00B04243F08073136000BFBD465DF8047B99
:103B0C00704780B400AF4FF0B0431B684FF0B04229
:103B1C0023F08073136000BFBD465DF8047B7047D3
:103B2C0080B400AF4FF0B0431B6803F00073B3F1E7
:103B3C00007F01D1012300E000231846BD465DF84B
:103B4C00047B704780B400AF4FF0B043DB681B0AB6
:103B5C0003F07F031846BD465DF8047B704780B4C4
:103B6C0000AF4FF0B043DB6803F060431846BD462E
:103B7C005DF8047B704780B400AF4FF0B043DB6856
:103B8C0003F070031846BD465DF8047B704780B4A3
:103B9C0000AF4FF0B043DB6803F003031846BD469B
:103BAC005DF8047B704780B400AF4FF0B0439B6866
:103BBC0003F48033B3F5803F01D1012300E00023EF
:103BCC001846BD465DF8047B704780B400AF4FF0DB
:103BDC00B043D3F8083103F40033B3F5003F01D1FF
:103BEC00012300E000231846BD465DF8047B7047B6
:103BFC0080B400AF4FF0B043D3F8083103F48033F6
:103C0C00B3F5803F01D1012300E000231846BD46E7
:103C1C005DF8047B704780B400AF4FF0B0439B68F5
:103C2C0003F40033B3F5003F01D1012300E000237E
:103C3C001846BD465DF8047B704780B400AF4FF06A
:103C4C00B0439B6803F48023B3F5802F01D101238B
:103C5C0000E000231846BD465DF8047B7047000069
:103C6C0090B58DB000AF78607B68002B01D101233B
:103C7C0086E37B681B6803F02003002B00F08F8029
:103C8C00FFF789FEF862FFF782FFB862FB6A002B30
:103C9C0005D0FB6A0C2B49D1BB6A012B46D1FFF72F
:103CAC0017FE0346002B05D07B68DB69002B01D186
:103CBC00012365E37B685C6AFFF72FFE03469C4299
:103CCC0014D97B685B6A184600F044FD0346002B50
:103CDC0001D0012354E37B685B6A1846FFF709FEA9
:103CEC007B681B6A1846FFF72DFE13E07B685B6A46
:103CFC001846FFF7FEFD7B681B6A1846FFF722FE8D
:103D0C007B685B6A184600F025FD0346002B01D04A
:103D1C00012335E3FDF7E8F8B44B1B681846FDF7B3
:103D2C00DDF90346002B39D0012329E37B68DB69DD
:103D3C00002B1ED0FFF7AEFDFDF71EFA786208E0EF
:103D4C00FDF71AFA02467B6AD31A022B01D9032318
:103D5C0016E3FFF7BDFD0346002BF1D07B685B6AD1
:103D6C001846FFF7C6FD7B681B6A1846FFF7EAFD8D
:103D7C0015E0FFF79EFDFDF7FFF9786208E0FDF70F
:103D8C00FBF902467B6AD31A022B01D90323F7E213
:103D9C00FFF79EFD0346002BF1D100E000BF7B68CE
:103DAC001B6803F00103002B5AD0FFF7F4FD3862B7
:103DBC00FFF7EDFEF8613B6A082B05D03B6A0C2B34
:103DCC000DD1FB69032B0AD1FFF704FC0346002B32
:103DDC0045D07B685B68002B41D10123D0E27B6826
:103DEC005B68B3F5803F02D1FFF7D6FB0DE07B6833
:103DFC005B68B3F5A02F04D1FFF7B0FBFFF7CCFB4A
:103E0C0003E0FFF7D8FBFFF7B8FB7B685B68002B80
:103E1C0012D0FDF7B1F9786208E0FDF7ADF9024672
:103E2C007B6AD31A642B01D90323A9E2FFF7D2FBD7
:103E3C000346002BF1D013E0FDF79EF9786208E001
:103E4C00FDF79AF902467B6AD31A642B01D9032336
:103E5C0096E2FFF7BFFB0346002BF1D100E000BF59
:103E6C007B681B6803F00203002B51D0FFF793FD16
:103E7C00B861FFF78CFE7861BB69042B05D0BB6978
:103E8C000C2B13D17B69022B10D1FFF7D3FB03460C
:103E9C00002B05D07B68DB68002B01D101236FE27E
:103EAC007B681B691846FFF7D7FB31E07B68DB6842
:103EBC00002B19D0FFF7A0FBFDF75EF9786208E044
:103ECC00FDF75AF902467B6AD31A022B01D9032358
:103EDC0056E2FFF7AFFB0346002BF1D07B681B6962
:103EEC001846FFF7B9FB13E0FFF795FBFDF744F914
:103EFC00786208E0FDF740F902467B6AD31A022B80
:103F0C0001D903233CE2FFF795FB0346002BF1D1CB
:103F1C007B681B6803F00803002B06D17B681B68C9
:103F2C0003F01003002B00F0A2807B685B69002B70
:103F3C0075D07B681B6803F01003002B46D0FFF78D
:103F4C004CFC0346002B13D1FFF725FCFDF714F9AD
:103F5C00786208E0FDF710F902467B6AD31A022B4F
:103F6C0001D903230CE2FFF738FC0346002BF1D0F8
:103F7C00FFF745FCFDF700F9786208E0FDF7FCF867
:103F8C0002467B6AD31A032B01D90323F8E1FFF70E
:103F9C0058FC0346002BF1D07B689B691846FFF751
:103FAC0062FCFFF709FCFDF7E7F8786208E0FDF723
:103FBC00E3F802467B6AD31A022B01D90323DFE113
:103FCC00FFF70BFC0346002BF1D150E0FFF7E3FBAE
:103FDC00FDF7D2F878620BE0FDF7CEF802467B6A6B
:103FEC00D31A022B04D90323CAE100BF0800002016
:103FFC00FFF7F3FB0346002BEED0FFF711FC08E0B4
:10400C00FDF7BAF802467B6AD31A032B01D90323B6
:10401C00B6E1FFF716FC0346002BF1D127E0FFF7C2
:10402C00FFFBFDF7A9F8786208E0FDF7A5F802465A
:10403C007B6AD31A032B01D90323A1E1FFF701FCFF
:10404C000346002BF1D1FFF7B7FBFDF795F878622B
:10405C0008E0FDF791F802467B6AD31A022B01D9CE
:10406C0003238DE1FFF7B9FB0346002BF1D17B68ED
:10407C001B6803F00403002B5BD0B54B1B6803F4E7
:10408C008073002B14D1FFF739FAFDF775F87862BD
:10409C0008E0FDF771F802467B6AD31A022B01D9AE
:1040AC0003236DE1AA4B1B6803F48073002BF0D043
:1040BC007B689B68012B02D1FFF717FB0CE07B6838
:1040CC009B68052B04D1FFF732FBFFF70EFB03E0D7
:1040DC00FFF71CFBFFF73CFB7B689B68002B14D0A5
:1040EC00FDF74AF878620AE0FDF746F802467B6A6B
:1040FC00D31A41F28832934201D9032340E1FFF7EE
:10410C0038FB0346002BEFD013E0FDF735F878624F
:10411C000AE0FDF731F802467B6AD31A41F2883285
:10412C00934201D903232BE1FFF723FB0346002B1A
:10413C00EFD17B681B6803F04003002B2CD07B680D
:10414C009B6A002B14D0FFF79CFAFDF715F87862E8
:10415C0008E0FDF711F802467B6AD31A022B01D94D
:10416C0003230DE1FFF7AFFA0346002BF1D013E068
:10417C00FFF798FAFDF700F8786208E0FCF7FCFF0F
:10418C0002467B6AD31A022B01D90323F8E0FFF70E
:10419C009AFA0346002BF1D17B68DB6A002B00F006
:1041AC00EE80FFF7F8FB38614FF0B043DB68FB6043
:1041BC007B68DB6A022B40F0AF80FB6803F00302E4
:1041CC007B681B6B9A4223D1FB6803F070027B68FF
:1041DC005B6B9A421CD1FB681B0A03F07F027B6865
:1041EC009B6B9A4214D1FB6803F478127B68DB6BEF
:1041FC009A420DD1FB6803F060627B681B6C9A429B
:10420C0006D1FB6803F060427B685B6C9A425DD020
:10421C003B690C2B58D04FF0B0431B6803F0806304
:10422C00002B01D00123ABE0FFF76BFCFCF7A4FFE4
:10423C00786208E0FCF7A0FF02467B6AD31A022BD7
:10424C0001D903239CE04FF0B0431B6803F00073CB
:10425C00002BEFD14FF0B043DA683E4B13407A6835
:10426C00116B7A68526B11437A68926B120211438C
:10427C007A68D26B11437A68126C11437A68526C6B
:10428C000A434FF0B0411343CB60FFF72BFC4FF0C8
:10429C00B043DB684FF0B04243F08053D360FCF77F
:1042AC006BFF786208E0FCF767FF02467B6AD31A63
:1042BC00022B01D9032363E04FF0B0431B6803F0DA
:1042CC000073002BEFD05AE0012359E04FF0B043BC
:1042DC001B6803F00073002B51D1FFF703FC4FF068
:1042EC00B043DB684FF0B04243F08053D360FCF72F
:1042FC0043FF786208E0FCF73FFF02467B6AD31A63
:10430C00022B01D903233BE04FF0B0431B6803F0B1
:10431C000073002BEFD032E03B690C2B2DD0FFF754
:10432C00F0FB4FF0B043DB684FF0B04223F00303D7
:10433C00D3604FF0B043DB684FF0B04223F08853AA
:10434C0023F48033D360FCF717FF78620DE000BFD5
:10435C00000400588C80C111FCF70EFF02467B6AEA
:10436C00D31A022B01D903230AE04FF0B0431B6888
:10437C0003F00073002BEFD101E0012300E00023D8
:10438C0018463437BD4690BD80B584B000AF786018
:10439C0039607B68002B01D101232AE1974B1B6804
:1043AC0003F007033A689A421BD9944B1B6823F01D
:1043BC00070292493B6813430B60FCF7DDFEF86083
:1043CC0008E0FCF7D9FE0246FB68D31A022B01D990
:1043DC0003230EE1894B1B6803F007033A689A42EA
:1043EC00EFD17B681B6803F00203002B16D07B68AF
:1043FC009B681846FFF7DBFAFCF7BEFEF86008E096
:10440C00FCF7BAFE0246FB68D31A022B01D9032330
:10441C00EFE0FFF7C8FB0346002BF1D07B681B686D
:10442C0003F02003002B16D07B685B691846FFF75E
:10443C00D2FAFCF7A1FEF86008E0FCF79DFE0246FC
:10444C00FB68D31A022B01D90323D2E0FFF7BDFB83
:10445C000346002BF1D07B681B6803F04003002B54
:10446C0016D07B689B691846FFF7CBFAFCF784FEE5
:10447C00F86008E0FCF780FE0246FB68D31A022BBA
:10448C0001D90323B5E0FFF7B3FB0346002BF1D0B2
:10449C007B681B6803F00403002B16D07B68DB6879
:1044AC001846FFF7C5FAFCF767FEF86008E0FCF762
:1044BC0063FE0246FB68D31A022B01D9032398E052
:1044CC00FFF7A9FB0346002BF1D07B681B6803F0B8
:1044DC000803002B17D07B681B69DB001846FFF71D
:1044EC00BBFAFCF749FEF86008E0FCF745FE024613
:1044FC00FB68D31A022B01D903237AE0FFF79DFB4B
:10450C000346002BF1D07B681B6803F00103002BE2
:10451C0043D07B685B68022B06D1FFF75BF8034640
:10452C00002B1ED1012364E07B685B68032B06D152
:10453C00FFF7F6FA0346002B13D1012359E07B68F1
:10454C005B68002B06D1FFF7C3F90346002B08D19B
:10455C0001234EE0FFF76EF80346002B01D1012337
:10456C0047E07B685B681846FFF701FAFCF704FE2E
:10457C00F8600AE0FCF700FE0246FB68D31A41F231
:10458C008832934201D9032333E0FFF704FA024641
:10459C007B685B689B009A42ECD1184B1B6803F05C
:1045AC0007033A689A421BD2144B1B6823F007028C
:1045BC0012493B6813430B60FCF7DEFDF86008E022
:1045CC00FCF7DAFD0246FB68D31A022B01D9032350
:1045DC000FE00A4B1B6803F007033A689A42EFD1CD
:1045EC00FCF782FCFCF7D4FD03461846FCF776FD7D
:1045FC00034618461037BD4680BD00BF004000582A
:10460C0090B585B000AFFFF7C6F978607B68002BDA
:10461C000AD1FFF782F903461B0903F00F032A4A5C
:10462C0052F82330FB604AE07B68042B02D1274B05
:10463C00FB6044E07B68082B0AD1FEF77DFF034644
:10464C00012B02D1214BFB6039E0214BFB6036E0A2
:10465C00FFF79DFA38603B68022B02D0032B03D086
:10466C000DE01A4BBB6015E0FEF766FF0346012B0D
:10467C0002D1164BBB600DE0154BBB600AE0FFF797
:10468C004CF903461B0903F00F030F4A52F8233071
:10469C00BB6000BFFFF756FA0246BB6803FB02F48F
:1046AC00FFF769FA03461B090133B4FBF3F4FFF778
:1046BC0056FA03465B0F0133B4FBF3F3FB60FB6864
:1046CC0018461437BD4690BD706A00080024F400EB
:1046DC000048E80198B500AFFFF792FF0446FFF7DA
:1046EC00CFF903461B0903F00F03034A52F823309A
:1046FC00B4FBF3F3184698BD106A000898B500AFE8
:10470C00FFF7E8FF0446FFF7D5F903461B0A03F051
:10471C000703044A52F8233003F01F0324FA03F36F
:10472C00184698BD506A000898B500AFFFF7D2FF45
:10473C000446FFF7CBF90346DB0A03F00703044AF0
:10474C0052F8233003F01F0324FA03F3184698BDE4
:10475C00506A000890B585B000AF78607B68B02BCC
:10476C0003D9154BDB6AFB6007E07B681B0903F080
:10477C000F03114A52F82330FB60FFF78DF9034603
:10478C001B0903F00F030D4A52F82330FA68B2FBF1
:10479C00F3F3BB60BB680A4AA2FB03239C0CFEF735
:1047AC00BDFE03461946204600F00CF80346184699
:1047BC001437BD4690BD00BF706A0008106A00082F
:1047CC0083DE1B4390B593B000AF78603960394BF2
:1047DC0007F128040FCB84E80F00374A07F11C03BC
:1047EC0007CA83E80700354B07F10C040FCB84E8AC
:1047FC000F0000237B643B68B3F5007F1CD10023C2
:10480C003B6415E03B6C9B0007F14802134453F8E2
:10481C00203C7A689A4208D83B6C9B0007F148020E
:10482C00134453F83C3C7B6422E03B6C01333B6407
:10483C003B6C032BE6D91BE00023FB6315E0FB6B01
:10484C009B0007F14802134453F82C3C7A689A42B7
:10485C0008D8FB6B9B0007F14802134453F83C3C0F
:10486C007B6405E0FB6B0133FB63FB6B022BE6D92E
:10487C00134B1B6823F0070211497B6C13430B602D
:10488C00FCF77AFCB86308E0FCF776FC0246BB6BDD
:10489C00D31A022B01D9032307E0094B1B6803F041
:1048AC0007037A6C9A42EFD1002318464C37BD4669
:1048BC0090BD00BFD4690008E4690008F0690008E5
:1048CC000040005880B400AF4FF0B043D3F89030A4
:1048DC0003F00103012B01D1012300E00023184652
:1048EC00BD465DF8047B704780B400AF4FF0B04319
:1048FC00D3F8903003F00203022B01D1012300E026
:10490C0000231846BD465DF8047B704780B483B025
:10491C0000AF78604FF0B043D3F8943023F44042AA
:10492C004FF0B0417B681343C1F8943000BF0C3793
:10493C00BD465DF8047B704780B483B000AF7860EF
:10494C004FF0B0435B6A23F003024FF0B0417B6839
:10495C0013434B6200BF0C37BD465DF8047B7047B8
:10496C0080B483B000AF78604FF0B0435B6A23F043
:10497C0030024FF0B0417B6813434B6200BF0C37E1
:10498C00BD465DF8047B704780B483B000AF78609F
:10499C004FF0B043D3F8883023F003024FF0B0410E
:1049AC007B681343C1F8883000BF0C37BD465DF8F7
:1049BC00047B704780B483B000AF78604FF0B04395
:1049CC00D3F8883023F440624FF0B0417B68134336
:1049DC00C1F8883000BF0C37BD465DF8047B7047CA
:1049EC0080B483B000AF78604FF0B043D3F8882028
:1049FC007B681B0903F47F23DB431A407B681B0194
:104A0C0003F47F234FF0B0411343C1F8883000BF4B
:104A1C000C37BD465DF8047B704780B483B000AFA3
:104A2C0078604FF0B043D3F888207B681B0C1B04D4
:104A3C00DB431A407B681B044FF0B0411343C1F8B1
:104A4C00883000BF0C37BD465DF8047B704780B4DE
:104A5C0083B000AF78604FF0B043D3F8883023F4C4
:104A6C0040024FF0B0417B681343C1F8883000BF5F
:104A7C000C37BD465DF8047B704780B483B000AF43
:104A8C0078604FF0B043D3F8883023F040424FF0B9
:104A9C00B0417B681343C1F8883000BF0C37BD466A
:104AAC005DF8047B704780B483B000AF78604FF042
:104ABC00B043D3F8883023F040624FF0B0417B68AC
:104ACC001343C1F8883000BF0C37BD465DF8047B3A
:104ADC00704780B582B000AF78607868FFF7E3FF6D
:104AEC0000BF0837BD4680BD80B483B000AF78608E
:104AFC004FF0B043D3F8883023F040524FF0B04120
:104B0C007B681343C1F8883000BF0C37BD465DF895
:104B1C00047B704780B483B000AF78604FF0B04333
:104B2C00D3F8903023F440724FF0B0417B681343BC
:104B3C00C1F8903000BF0C37BD465DF8047B704760
:104B4C0080B400AF4FF0B043D3F8903003F440730F
:104B5C001846BD465DF8047B704780B400AF4FF03B
:104B6C00B043D3F890304FF0B04243F48033C2F8E6
:104B7C00903000BFBD465DF8047B704780B400AF39
:104B8C004FF0B043D3F890304FF0B04223F4803361
:104B9C00C2F8903000BFBD465DF8047B704780B40E
:104BAC0000AF4FF0B0431B684FF0B04243F080634E
:104BBC00136000BFBD465DF8047B704780B400AF46
:104BCC004FF0B0431B684FF0B04223F0806313608A
:104BDC0000BFBD465DF8047B704780B400AF4FF05A
:104BEC00B0431B6803F00063B3F1006F01D10123E4
:104BFC0000E000231846BD465DF8047B704780B585
:104C0C0088B000AF78600023FB770023BB777B680C
:104C1C001B6803F04003002B33D07B681B6BB3F590
:104C2C00800F0CD0B3F5800F02D8002B10D017E0FA
:104C3C00B3F5000F17D0B3F5400F16D010E04FF0BE
:104C4C00B043DB684FF0B04243F48033D3600DE0E7
:104C5C007B680433184600F047F90346FB7705E000
:104C6C000123FB7702E000BF00E000BFFB7F002BBD
:104C7C0005D17B681B6B1846FFF7E9FE01E0FB7F53
:104C8C00BB777B681B6803F40063002B46D0FFF7EF
:104C9C0057FFB8617B681B6CBA699A423CD0FEF72F
:104CAC002DFCBB69002B05D17B681B6C1846FFF7EC
:104CBC0031FF2EE04FF0B043D3F890307B61FFF71B
:104CCC004CFFFFF75BFF7B6923F440727B681B6C26
:104CDC0013437B614FF0B0427B69C2F89030FFF711
:104CEC00F1FD0346012B14D1FCF746FA38610BE0B9
:104CFC00FCF742FA02463B69D31A41F288329342DE
:104D0C0002D90323FB7704E0FFF7EEFD0346012BEA
:104D1C00EED1FB7FBB7701E0FB7FBB777B681B6829
:104D2C0003F00103002B04D07B689B691846FFF746
:104D3C002BFE7B681B6803F00203002B04D07B68FE
:104D4C00DB691846FFF736FE7B681B6803F010031F
:104D5C00002B04D07B689B6A1846FFF75EFE7B68CD
:104D6C001B6803F02003002B04D07B68DB6A184619
:104D7C00FFF753FE7B681B6803F00403002B04D081
:104D8C007B681B6A1846FFF72BFE7B681B6803F0D9
:104D9C000803002B04D07B685B6A1846FFF720FEE3
:104DAC007B681B6803F48073002B22D07B685B6BE1
:104DBC001846FFF78EFE7B685B6BB3F1006F07D173
:104DCC004FF0B043DB684FF0B04243F08073D360D8
:104DDC007B685B6BB3F1806F0BD17B680433184637
:104DEC0000F0DDF80346FB77FB7F002B01D0FB7F47
:104DFC00BB777B681B6803F40073002B2BD07B689C
:104E0C009B6BB3F1804F08D07B689B6BB3F1004F69
:104E1C0003D07B689B6B002B05D17B689B6B184682
:104E2C00FFF72BFE0AE07B689B6B23F08053FB6043
:104E3C000020FFF722FEF868FFF735FE7B689B6BBE
:104E4C00B3F1C05F07D14FF0B043DB684FF0B04215
:104E5C0043F08073D3607B681B6803F48063002B82
:104E6C0022D07B68DB6B1846FFF73EFE7B68DB6B62
:104E7C00B3F1005F07D14FF0B043DB684FF0B042A5
:104E8C0043F48033D3607B68DB6BB3F1805F0BD171
:104E9C007B680433184600F0DDF80346FB77FB7F94
:104EAC00002B01D0FB7FBB777B681B6803F480531E
:104EBC00002B04D07B685B6C1846FFF727FD7B68E2
:104ECC001B6803F40053002B09D07B68DB6C18467D
:104EDC00FFF746FD7B689B6C1846FFF72DFDBB7FEB
:104EEC0018462037BD4680BD80B584B000AF7860D1
:104EFC000023FB73FFF762FEFCF73EF9B86009E094
:104F0C00FCF73AF90246BB68D31A022B02D90323E9
:104F1C00FB7304E0FFF761FE0346002BF0D1FB7B33
:104F2C00002B37D14FF0B0431B6923F4FE427B6852
:104F3C001B681B024FF0B04113430B614FF0B043A1
:104F4C001B6923F478127B685B684FF0B041134304
:104F5C000B61FFF724FEFCF70FF9B86009E0FCF7D2
:104F6C000BF90246BB68D31A022B02D90323FB733D
:104F7C0004E0FFF732FE0346012BF0D1FB7B002B44
:104F8C0008D14FF0B0431A697B681B694FF0B041F0
:104F9C0013430B61FB7B18461037BD4680BD80B5B3
:104FAC0084B000AF78600023FB73FFF707FEFCF7BB
:104FBC00E3F8B86009E0FCF7DFF80246BB68D31AE7
:104FCC00022B02D90323FB7304E0FFF706FE034612
:104FDC00002BF0D1FB7B002B37D14FF0B0431B697A
:104FEC0023F4FE427B681B681B024FF0B041134355
:104FFC000B614FF0B0431B6923F060627B689B68C8
:10500C004FF0B04113430B61FFF7C9FDFCF7B4F847
:10501C00B86009E0FCF7B0F80246BB68D31A022B63
:10502C0002D90323FB7304E0FFF7D7FD0346012BE2
:10503C00F0D1FB7B002B08D14FF0B0431A697B6891
:10504C001B694FF0B04113430B61FB7B18461037C3
:10505C00BD4680BD80B584B000AF78600023FB7383
:10506C00FFF7ACFDFCF788F8B86009E0FCF784F8B2
:10507C000246BB68D31A022B02D90323FB7304E04C
:10508C00FFF7ABFD0346002BF0D1FB7B002B37D198
:10509C004FF0B0431B6923F4FE427B681B681B0274
:1050AC004FF0B04113430B614FF0B0431B6923F039
:1050BC0060427B68DB684FF0B04113430B61FFF734
:1050CC006EFDFCF759F8B86009E0FCF755F802469C
:1050DC00BB68D31A022B02D90323FB7304E0FFF73E
:1050EC007CFD0346012BF0D1FB7B002B08D14FF04C
:1050FC00B0431A697B681B694FF0B04113430B61D5
:10510C00FB7B18461037BD4680BD80B483B000AF22
:10511C0078604FF0B043D3F888207B681340184672
:10512C000C37BD465DF8047B704780B483B000AF8C
:10513C0078604FF0B043D3F888207B681340184652
:10514C000C37BD465DF8047B704780B582B000AF6C
:10515C0078607B68002B01D1012342E07B68D3F897
:10516C008030002B06D17B68002283F87C20786885
:10517C00FBF7B4FC7B682422C3F880207B681B6897
:10518C001A687B681B6822F001021A60786800F0CC
:10519C0057FA0346012B01D1012322E07B689B6A5D
:1051AC00002B02D0786800F059FC7B681B685A68A9
:1051BC007B681B6822F490425A607B681B689A6873
:1051CC007B681B6822F02A029A607B681B681A684D
:1051DC007B681B6842F001021A60786800F0E0FC02
:1051EC00034618460837BD4680BD80B58AB002AF6D
:1051FC00F860B9603B601346FB80FB68D3F88030E5
:10520C00202B40F08380BB68002B02D0FB88002B46
:10521C0001D101237BE0FB6893F87C30012B01D199
:10522C00022374E0FB68012283F87C20FB680022D7
:10523C00C3F88820FB682122C3F88020FBF79CFF71
:10524C007861FB68FA88A3F85420FB68FA88A3F805
:10525C005620FB689B68B3F5805F08D1FB681B691F
:10526C00002B04D10023FB61BB68BB6103E0BB686E
:10527C00FB610023BB61FB68002283F87C202CE0DF
:10528C003B6800937B6900228021F86800F0D0FC19
:10529C000346002B01D0032339E0FB69002B0BD113
:1052AC00BB691B881A46FB681B68C2F308029A622A
:1052BC00BB690233BB6107E0FB691A78FB681B68AA
:1052CC009A62FB690133FB61FB68B3F856309BB201
:1052DC00013B9AB2FB68A3F85620FB68B3F8563032
:1052EC009BB2002BCCD13B6800937B690022402100
:1052FC00F86800F09DFC0346002B01D0032306E068
:10530C00FB682022C3F88020002300E0022318460B
:10531C002037BD4680BD000080B588B000AF7860F6
:10532C007B681B68DB69FB617B681B681B68BB6166
:10533C007B681B689B687B61FA6940F60F0313401E
:10534C003B613B69002B18D1FB6903F02003002B58
:10535C0013D0BB6903F02003002B04D17B6903F04D
:10536C008053002B09D07B68DB6E002B00F045814D
:10537C007B68DB6E786898473FE13B69002B00F057
:10538C00E8807A69A14B1340002B05D1BA69A04B78
:10539C001340002B00F0DD80FB6903F00103002BB0
:1053AC0010D0BB6903F48073002B0BD07B681B6897
:1053BC0001221A627B68D3F8883043F001027B68C3
:1053CC00C3F88820FB6903F00203002B10D07B6923
:1053DC0003F00103002B0BD07B681B6802221A62BE
:1053EC007B68D3F8883043F004027B68C3F88820CC
:1053FC00FB6903F00403002B10D07B6903F001035D
:10540C00002B0BD07B681B6804221A627B68D3F8D4
:10541C00883043F002027B68C3F88820FB6903F0F4
:10542C000803002B15D0BB6903F02003002B04D11B
:10543C007A69764B1340002B0BD07B681B680822D3
:10544C001A627B68D3F8883043F008027B68C3F893
:10545C008820FB6903F40063002B11D0BB6903F0B7
:10546C008063002B0CD07B681B684FF400621A62BF
:10547C007B68D3F8883043F020027B68C3F888201F
:10548C007B68D3F88830002B00F0B980FB6903F0FF
:10549C002003002B11D0BB6903F02003002B04D197
:1054AC007B6903F08053002B07D07B68DB6E002BED
:1054BC0003D07B68DB6E786898477B68D3F88830BC
:1054CC00FB607B681B689B6803F04003402B04D097
:1054DC00FB6803F02803002B31D0786800F028FC1F
:1054EC007B681B689B6803F04003402B23D17B68CF
:1054FC001B689A687B681B6822F040029A607B6884
:10550C009B6F002B13D07B689B6F424A9A637B681E
:10551C009B6F1846FCF77BF80346002B17D07B6873
:10552C009B6F9B6B7A68926F104698470FE0786878
:10553C0000F07CF80BE0786800F078F807E0786809
:10554C0000F074F87B680022C3F8882057E000BF95
:10555C0055E0FB6903F48013002B0DD07B6903F439
:10556C008003002B08D07B681B684FF480121A62F2
:10557C00786800F030FC45E0FB6903F08003002BF9
:10558C0012D0BB6903F08003002B04D17B6903F4B8
:10559C000003002B08D07B681B6F002B31D07B687D
:1055AC001B6F786898472CE0FB6903F04003002BD5
:1055BC0008D0BB6903F04003002B03D0786800F0DF
:1055CC00F0FB1FE0FB6903F40003002B08D0BB6960
:1055DC0003F08043002B03D0786800F010FC11E03E
:1055EC00FB6903F08073002B0CD0BB69002B09DA2C
:1055FC00786800F0FAFB00BF04E000BF02E000BFD7
:10560C0000E000BF2037BD4680BD00BF0100001088
:10561C0020010004835D000880B483B000AF786083
:10562C0000BF0C37BD465DF8047B704780B483B077
:10563C0000AF786000BF0C37BD465DF8047B704747
:10564C002DE9904888B000AF78600023BB767B686A
:10565C009A687B681B691A437B685B691A437B6891
:10566C00DB691343FB617B685B6EFA691343FB6177
:10567C007B681B681A68A44B13407A681268F96936
:10568C000B4313607B681B685B6823F440517B6899
:10569C00DA687B681B680A435A607B689B69FB610C
:1056AC007B681B68994A934204D07B681B6AFA6931
:1056BC001343FB617B681B689B6823F06E4323F4E8
:1056CC0030637A681268F9690B4393607B681B68D6
:1056DC00DB6A23F00F017B685A6A7B681B680A43FC
:1056EC00DA627B681B688A4A934221D10320FFF758
:1056FC000CFD0346032B17D801A252F823F000BF70
:10570C001D57000829570008235700082F57000879
:10571C000123FB7638E00223FB7635E00423FB768D
:10572C0032E00823FB762FE01023FB7600BF2BE042
:10573C007B681B68754A934224D14FF44060FFF795
:10574C00F4FC0346B3F5806F12D0B3F5806F02D82A
:10575C00002B07D012E0B3F5006F06D0B3F5406F05
:10576C0009D00BE00023FB760EE00223FB760BE066
:10577C000423FB7608E00823FB7605E01023FB7678
:10578C0000BF01E01023FB767B681B685F4A9342E5
:10579C0040F08E80FB7E082B23D801A252F823F018
:1057AC00D1570008EF570008D9570008EF570008E9
:1057BC00DF570008EF570008EF570008EF570008B5
:1057CC00E7570008FEF79AFF78610FE0514B7B61B9
:1057DC000CE0FEF715FF786108E04FF400437B61A5
:1057EC0004E000237B610123BB7600BF7B69002BA7
:1057FC0000F01C817B685B6A474A32F813301A460A
:10580C007B69B3FBF2F3BB607B685A6813465B00A1
:10581C001344BA689A4205D37B685B681B03BA6869
:10582C009A4202D90123BB7600E17B6918464FF0FE
:10583C0000017B685B6A384A32F813309BB24FF038
:10584C0000041A462346FAF793FC03460C46194605
:10585C0022464FF000034FF00004140244EA116496
:10586C000B027A685268520811464FF0000213EB93
:10587C00010B44EB020C584661467B685B684FF0A9
:10588C0000041A462346FAF773FC03460C463B61A8
:10589C003B69B3F5407F08D33B69B3F5801F04D255
:1058AC007B681B683A69DA60C0E00123BB76BDE017
:1058BC007B68DB69B3F5004F69D1FB7E013B072B9D
:1058CC002CD801A252F823F0F5580008FD58000816
:1058DC0029590008035900082959000829590008BA
:1058EC00295900080B590008FEF71EFF78611AE0D1
:1058FC00084B7B6117E0FEF783FE786113E04FF4F1
:10590C0000437B610FE000BFF369FFCF00800040D4
:10591C00003801400024F400B06A000800237B61C9
:10592C000123BB7600BF7B69002B7FD07B685B6A51
:10593C00484A32F813301A467B69B3FBF2F35A002B
:10594C007B685B685B081A447B685B68B2FBF3F3AB
:10595C009BB23B613B690F2B16D93B69B3F5803F7A
:10596C0012D23B699BB223F00F03FB813B695B08AE
:10597C009BB203F007039AB2FB891343FB817B684C
:10598C001B68FA89DA6051E00123BB764EE0FB7E9E
:10599C00013B072B21D801A252F823F0C95900086A
:1059AC00D1590008E7590008D7590008E7590008F1
:1059BC00E7590008E7590008DF590008FEF7B4FE64
:1059CC0078610FE0244B7B610CE0FEF719FE7861E7
:1059DC0008E04FF400437B6104E000237B6101236A
:1059EC00BB7600BF7B69002B20D07B685B6A194AB1
:1059FC0032F813301A467B69B3FBF2F27B685B68B2
:105A0C005B081A447B685B68B2FBF3F39BB23B61A7
:105A1C003B690F2B08D93B69B3F5803F04D27B68F7
:105A2C001B683A69DA6001E00123BB767B680122CE
:105A3C00A3F86A207B680122A3F868207B68002207
:105A4C00DA667B6800221A67BB7E18462037BD4693
:105A5C00BDE89088B06A00080024F40080B483B0DC
:105A6C0000AF78607B689B6A03F00103002B0AD0BF
:105A7C007B681B685B6823F400317B68DA6A7B689F
:105A8C001B680A435A607B689B6A03F00203002B75
:105A9C000AD07B681B685B6823F480317B681A6BC7
:105AAC007B681B680A435A607B689B6A03F004039B
:105ABC00002B0AD07B681B685B6823F480217B6811
:105ACC005A6B7B681B680A435A607B689B6A03F0BD
